:020000040800F2
:1040000000180020A18A0008D9450008E1470008EF
:10401000C5470008A94700088F47000800000000B6
:10402000000000000000000000000000DD45000866
:10403000DB45000800000000DF450008E1450008FE
:10404000E3450008E5450008E7450008E9450008A4
:10405000EB450008ED450008EF450008F145000874
:10406000F3450008F5450008F7450008F945000844
:10407000FB450008FD450008FF4500080146000813
:104080000346000805460008074600088B4700085D
:1040900087470008094600080B4600080D4600083F
:1040A0000F46000811460008134600081546000890
:1040B00017460008194600086D4700086F470008BA
:1040C00071470008734700087547000877470008E4
:1040D000794700087B4700087D4700087F470008B4
:1040E000814700088347000885470008000000005A
:1040F00000000000000000000000000000000000C0
:0C41000000000000000000005FF808F163
:10410C0004F0C8BC02F072B803F092BE01F0A8BD76
:10411C0001F062BD01F0DCBA9FE100F0B5BF01F027
:10412C0051B801F081B801F099B800F0AEBF00F0C1
:10413C0033BD00F0D1BE00F06BBD01F0E7BA01F069
:10414C00E3BA2DE9F00041F60007C4F2010741F291
:10415C000046C4F20106022320242025FD60736171
:10416C00746141F20046C4F2010634613361F960B6
:10417C00746141F20046C4F2010634612125FD60F0
:10418C007361746141F20046C4F20106346133611B
:10419C00F860746141F20046C4F2010634612225D4
:1041AC00FD607361746141F20046C4F20106346132
:1041BC0033615FF044357D603D601020706141F2E9
:1041CC000046C4F2010641F20046C4F2010641F277
:1041DC000046C4F2010641F20046C4F20106306109
:1041EC0041F20046C4F2010641F20046C4F2010657
:1041FC0041F20046C4F2010641F20046C4F2010647
:10420C00706141F60006C4F2010641F60006C4F2E4
:10421C00010641F20046C4F2010641F20046C4F226
:10422C000106BB6830615FF033357D603D60022074
:10423C002025FD607061746141F20046C4F20106F4
:10424C0034613061F960746141F20046C4F20106D8
:10425C0034612225FD607061746141F20046C4F244
:10426C0001063461306141F2820513EA050002D087
:10427C0012EA050006D041F6E30503EA050343EA1A
:10428C00020305E041F6E30502EA050243EA0203F4
:10429C00FB60746141F20046C4F201063461F0BC6B
:1042AC0070472DE9F00041F60007C4F2010741F216
:1042BC000046C4F20106022320242025FD60736110
:1042CC00746141F20046C4F2010634613361F96055
:1042DC00746141F20046C4F2010634612125FD608F
:1042EC007361746141F20046C4F2010634613361BA
:1042FC00F860746141F20046C4F201063461222573
:10430C00FD607361746141F20046C4F201063461D0
:10431C0033615FF044357D603D601020706141F287
:10432C000046C4F2010641F20046C4F2010641F215
:10433C000046C4F2010641F20046C4F201063061A7
:10434C0041F20046C4F2010641F20046C4F20106F5
:10435C0041F20046C4F2010641F20046C4F20106E5
:10436C00706141F60006C4F2010641F60006C4F283
:10437C00010641F20046C4F2010641F20046C4F2C5
:10438C000106BB6830615FF033357D603D60022013
:10439C002025FD607061746141F20046C4F2010693
:1043AC0034613061F960746141F20046C4F2010677
:1043BC0034612225FD607061746141F20046C4F2E3
:1043CC0001063461306141F6E30503EA0500104053
:1043DC003AD003EA050302EA0502934334D040F2D3
:1043EC0080051D4004D04EF2807543EA05032BE096
:1043FC0040F202051D4004D040F21E7543EA05034D
:10440C0022E041F200051D4004D04FF21C0543EAA6
:10441C00050319E040F220051D4004D048F2307528
:10442C0043EA050310E040F600051D4004D04EF6AB
:10443C001C7543EA050307E040F240051D4003D01C
:10444C0048F2504543EA0503FB60746141F20046B3
:10445C00C4F201063461F0BC70472DE9F00041F65E
:10446C000007C4F2010741F20046C4F20106022320
:10447C0020242025FD607361746141F20046C4F272
:10448C00010634613361F960746141F20046C4F293
:10449C00010634612125FD607361746141F20046AF
:1044AC00C4F2010634613361F860746141F2004674
:1044BC00C4F2010634612225FD607361746141F21E
:1044CC000046C4F20106346133615FF044357D600F
:1044DC003D601021716141F20046C4F2010641F2C7
:1044EC000046C4F2010641F20046C4F2010641F254
:1044FC000046C4F20106316141F20046C4F20106E5
:10450C0041F20046C4F2010641F20046C4F2010633
:10451C0041F20046C4F20106716141F60006C4F294
:10452C00010641F60006C4F2010641F20046C4F24F
:10453C00010641F20046C4F20106B86831615FF031
:10454C0033357D603D60F0BC704730BF704720BF95
:10455C00704740BF7047BFF36F8F7047BFF34F8FEB
:10456C007047BFF35F8F704701DF7047EFF3148024
:10457C00704780F31488BFF36F8F7047EFF3098097
:10458C00704780F309887047EFF30880704780F319
:10459C000888704772B6704762B6704771B670473C
:1045AC0061B6704780F311887047EFF31280704743
:1045BC0040BA704700BA7047A09400080000002071
:1045CC002C0100202C010020600400207047704753
:1045DC007047704770477047704770477047704717
:1045EC007047704770477047704770477047704707
:1045FC0070477047704770477047704770477047F7
:10460C007047704770477047704770474A4B00229D
:10461C001A604A4B1A881AB11A88013A92B21A8057
:10462C00474B1A881AB11A88013A92B21A80454B34
:10463C001A780AB1013A1A70404B1B8823B9424BC5
:10464C001A6822F001021A603E4B1A78002A72D1C5
:10465C000A321A703D4B1A780AB1013A1A703C4B67
:10466C003C4A1B78012B13681CD113F4006F38D013
:10467C00394B196811F0080F31D0196811F0100F6F
:10468C0031D0196811F0400F35D0126812F4007F48
:10469C002FD01A6812F0200F27D01B6813F0800F50
:1046AC0025D045E013F4006F1BD02B4B196811F08B
:1046BC00080F14D0196811F0100F14D0196811F0EC
:1046CC00400F12D0126812F4007F10D01A6812F04A
:1046DC00200F0ED01B6813F0800F0CD028E00323A2
:1046EC000AE0022308E0012306E0042304E005238A
:1046FC0002E0062300E00723144A5178994210D1B6
:10470C001178B1B9032B02D9023111700DE0022BD3
:10471C000FD1917869B901319170104A0231117041
:10472C0007E019211170193991700C4A137000E0CF
:10473C000023064A537070471004004064010020A7
:10474C00660100200000002000080040300100201D
:10475C006A0100200814014008080140690100208A
:10476C007047704770477047704770477047704785
:10477C007047704770477047704701F037BD03F0C2
:10478C0057BB07B5044B64201B68142100931F22F0
:10479C00002300F049FDFEE7E48A000807B5054B4D
:1047AC0064205B68142100931F22002300F03CFD61
:1047BC00FEE700BFE48A000807B5054B64209B6840
:1047CC00142100931F22002300F02EFDFEE700BFF2
:1047DC00E48A000807B5054B6420DB6814210093BC
:1047EC001F22002300F020FDFEE700BFE48A000832
:1047FC0037B5002000F070FB00F010FB00F0BCFAA5
:10480C0000F098F800F002F900F05EF900F078FE84
:10481C00002000F063FC03F0F7FA01F06BFA01F0F2
:10482C00ADF900214FF400723B4801F0D5F900F0CE
:10483C00DDFF00F0D1F90446C8B1384C384B218863
:10484C000820103989B221804FF6FF7200930023A3
:10485C0000F0EAFC2188334B103989B22180082002
:10486C0000934FF6FF72002300F0DEFCFEE72E4DA6
:10487C0000F034FC2B682046B02100934FF6FF72F9
:10488C00234600F0D1FC6B682046A02100934FF624
:10489C00FF72234600F0C8FCAB68204690210093C1
:1048AC004FF6FF72234600F0BFFCEB6820468021D8
:1048BC0000934FF6FF72234600F0B6FC20246822CA
:1048CC00082340F2FF7105F110000094019400F0F0
:1048DC00C5FC164B68221B8805F11000283B9BB2C7
:1048EC0040F2FF710094019400F0B8FC104B1A6870
:1048FC000433520C5204B2F1005F1B6800D198478C
:10490C00094B6420D3F89030142100931F2200230C
:10491C0000F08AFCFEE700BF8401002002000020AA
:10492C00CF930008E5930008F48A00086E0100207C
:10493C0000C00008174A184B18491A60184A04336B
:10494C001A60184A4FF6FF731360174A1160174923
:10495C0004321160083213601549164A1160164969
:10496C000432116008321360144A154B1A60154A50
:10497C0004331A604FF67F7208331A60124A4FF0F4
:10498C003333136004321360104B4FF490521A609F
:10499C00704700BF00808888000801401184888817
:1049AC008B4884880C080140000C014088B4B1BBD2
:1049BC0081881184001001408488888838883338B5
:1049CC000014014084888B880018014004000140C9
:1049DC000A4A0023136004321360094B4FF45652F9
:1049EC001A60084A4FF48051116007490432116073
:1049FC001A6842F001021A60704700BF00000240C2
:104A0C00080002400C0002404C240140234A4FF4A1
:104A1C00E0231360224A23491360234B04322348BA
:104A2C000B6013600023036021480360214803607E
:104A3C00214803602148036021480360136843F058
:104A4C00010313600B6843F001030B60136843F020
:104A5C00080313601B4B1B6813F0080FFAD1114BA2
:104A6C001A6842F008021A600E4B1B6813F0080F0C
:104A7C00FAD1144B1A6842F004021A60114B1B68ED
:104A8C0013F0040FFAD1074B1A6842F004021A60B3
:104A9C00044B1B6813F0040FFAD170470428014033
:104AAC000424014008280140020110002C28014078
:104ABC002C240140342801403424014010280140AA
:104ACC001024014008240140284B94221A60284AE3
:104ADC0000212848116030B50122274C0260782053
:104AEC0020604FF400452C3425604FF48445383C4D
:104AFC0025601C684FF4405514431C601F4B204C20
:104B0C00196040F6FF61043319602C3B8421196055
:104B1C0025604FF4F845043C25601C6802251443BD
:104B2C001C60184B09241C6041F61F4404331C60A4
:104B3C004FF4616408331C60134C343B19602560DE
:104B4C001C6814431C60114B48F69F441A600433D4
:104B5C001C60083344F250641C60343B19600C49EF
:104B6C000A600C4A10601A681A6030BD002C0140B3
:104B7C00302C0140202C0140182C01402800004012
:104B8C0020000040280400400C040040280800408D
:104B9C0020080040180800400B4B0C4A10B553F885
:104BAC00204003EB8000036C14600432136001336B
:104BBC005B0808321360064B1A6842F001021A6057
:104BCC00044B198010BD00BF8C8B000828080040D6
:104BDC000008004064010020024B1868800A00F0B5
:104BEC0001007047080C0140034B1868800A80F0E4
:104BFC00010000F00100704708140140034B58807D
:104C0C00024B5B88002BFBD1704700BF6401002076
:104C1C00274B284A1B78012B13681CD113F4006F07
:104C2C0038D0254B196811F0080F31D0196811F0E4
:104C3C00100F31D0196811F0400F35D0126812F4F2
:104C4C00007F2FD01A6812F0200F27D01B6813F0AA
:104C5C00800F25D02AE013F4006F1BD0164B196877
:104C6C0011F0080F14D0196811F0100F14D0196836
:104C7C0011F0400F12D0126812F4007F10D01A6895
:104C8C0012F0200F0ED01B6813F0800F0ED10BE02A
:104C9C0003207047022070470120704704207047A2
:104CAC00052070470620704707207047002070478A
:104CBC006A010020081401400808014008B50A48A0
:104CCC00022102F06FFA0028F9D00748FF2102F008
:104CDC0012FA0548012102F065FA0028F9D00248C1
:104CEC0002F00BFAC0B208BD0038004010B5044603
:104CFC000A48022102F056FA0028F9D0074821464A
:104D0C0002F0F9F90548012102F04CFA0028F9D01B
:104D1C00024802F0F2F9C0B210BD00BF00380040EA
:104D2C0010B54FF4827286B0ADF806204FF0020237
:104D3C000023ADF80A204FF40072ADF80430ADF842
:104D4C0008300124ADF80E20ADF812304FF00802F7
:104D5C004FF0070301A90748ADF80C40ADF810203F
:104D6C00ADF8143002F06CF90248214602F09CF9BF
:104D7C0006B010BD0038004073B54FF480414FF0C1
:104D8C00006002F083F801AE4FF4C060012501F021
:104D9C00D9FF0024142330468DF804308DF80550CB
:104DAC008DF806408DF8075001F0D6FF13233046DE
:104DBC008DF804308DF805408DF806408DF80750BD
:104DCC0001F0CAFF1B2330468DF804308DF80550D6
:104DDC008DF806408DF8075001F0BEFF1D233046BC
:104DEC008DF804308DF805508DF806408DF807507D
:104DFC0001F0B2FF0C2330468DF804308DF80550CD
:104E0C008DF806408DF8075001F0A6FF02482946A0
:104E1C00224602F075F87CBD9AC3020010B502F070
:104E2C0029FA4FF4803002F04BFA02F0B5FB234B19
:104E3C0001280446187128D1102001F0FFFC022033
:104E4C0001F0E4FC002002F08BFA002002F09CFA46
:104E5C004FF4806002F08EFA4FF4804002F0B2FA08
:104E6C004FF480304FF4E01102F056FA204602F075
:104E7C005FFA392002F07CFB0028FAD0022002F005
:104E8C005DFA02F065FA0828FBD10120014602F018
:104E9C0017FB012140F67D6002F020FB012144F25A
:104EAC00070002F029FB002002F086FA4FF4000004
:104EBC000121BDE8104002F01FBB00BF64010020BF
:104ECC00A0F12203DB00034A9BB25B1832F81300FB
:104EDC00704700BFB48C0008084B0128187005D12E
:104EEC004FF0F0025A804FF4A07204E04FF4A0721D
:104EFC005A804FF0F0029A80704700BF6A01002080
:104F0C0030B5074C074A206007482023022505606E
:104F1C0003601360156021600360136030BD00BF37
:104F2C000C1801401014014014140140F8B51F4630
:104F3C001B4B04461B780D46012B164609D1C7F5B1
:104F4C009E73C2F59E72033303320F46064695B22A
:104F5C009CB250203146FFF7D3FF51203946FFF762
:104F6C00CFFF52202146FFF7CBFF53202946FFF7F6
:104F7C00C7FF20203146FFF7C3FF21202146FFF752
:104F8C00BFFF084B22221A600749084A202302203F
:104F9C0008600B6013600B6013601060F8BD00BFFD
:104FAC006A0100200C180140141401401014014037
:104FBC0070B5124D04462B780E46012B08D12020DB
:104FCC002146FFF79DFFAB8821209E1BB1B204E068
:104FDC002020FFF795FF21202146FFF791FF084B7A
:104FEC0022221A600749084A2023022008600B601D
:104FFC0013600B601360106070BD00BF6A0100206D
:10500C000C1801401414014010140140034B044AC5
:10501C00186020231360043A136070470C18014089
:10502C0014140140144B70B51B780446012B0D462B
:10503C00164609D120202146FFF762FFC5F59E7167
:10504C000331212089B204E02020FFF759FF2120F1
:10505C002146FFF755FF094809490A4A22230360F4
:10506C000224023B0C600B6013600B601360146035
:10507C0006600B60136070BD6A0100200C180140C3
:10508C001414014010140140CCE72DE9F0418C467A
:10509C001C46411E0CF1FF335118E318154689B21A
:1050AC0062469BB2BDF818606C43FFF73FFF0027C8
:1050BC0003E03046FFF7AAFF0137A742F9DB064BA6
:1050CC00002059889B880139013B89B202469BB26A
:1050DC00BDE8F0412AE700BF6A01002007B5044B88
:1050EC005A889B88009000200146FFF7CEFF0EBD2A
:1050FC006A01002010B5002304E04FF0200C00F8EA
:10510C0003C001335FFA83FC8C45F6D30139C9B275
:10511C00054C02F00F032468E35C43540139120977
:10512C00C9B2F5D110BD00BF0400002010B500239A
:10513C0004E04FF0200C00F803C001335FFA83FC4D
:10514C008C45F6D30139C9B24FF00A0CB2FBFCF313
:10515C000CFB1322044C2468A25C42540139C9B2E2
:10516C001A46002BF0D110BD0400002030B50023EE
:10517C0004E04FF0200C00F803C001335FFA83FC0D
:10518C008C45F6D3002A01DB002401E052420124B5
:10519C00002343540139C9B24FF00A0C92FBFCF3C3
:1051AC000CFB1322064D2D68AA5C425401391A1EC1
:1051BC00C9B201DD0029EFD10CB12D23435430BD10
:1051CC00040000202DE9F74F00259DF830A004467F
:1051DC008B46019299462E46BAF1210F04D95046BE
:1051EC00E9B2FFF76DFE06465F464FF0000816F079
:1051FC00040F08F1010814BF019A4A4639462046AB
:10520C0036B21FFA88F876100137FFF70BFFB8F1AA
:10521C000E0FB6B2BFB2EAD10135ADB20134082DD2
:10522C00A4B2D9D1BDE8FE8F2DE9F745DDF828A051
:10523C0005460F4616469846002408E0009328467B
:10524C00394632464346FFF7BDFF0835ADB21AF872
:10525C0004300134002BF1D1BDE8FE852DE9F04F6F
:10526C0085B00292BDF83C205C1E02F1FF3B141984
:10527C000191BDF838901FFA8BFBA4B207463EE0B3
:10528C00029A09F1FF35ADB202F1FF3ADB102AB2F6
:10529C0009FB0323CA44FB1898461FFA8AFA5B469B
:1052AC00BB4622E098F800C0E61DCDF80C80B6B2E3
:1052BC00A846802765462F4206D050463146019AB3
:1052CC000093FFF7AFFE009BA64203D0013E7F0880
:1052DC00B6B2F0E74546DDF80C80013D0AF1FF3A25
:1052EC00ADB21FFA8AFA08F1FF3815F4004FD9D085
:1052FC005F46083CA3F1080B1FFA8BFBA4B20FFA14
:10530C008BF3002BBCDA05B0BDE8F08F2DE9FF4123
:10531C0003AF06460D4614469846384603219DF8C1
:10532C002820FFF703FF30462946224643460097C4
:10533C00FFF77AFFBDE8FF812DE9FF4102AF06467A
:10534C000D4614469846384604219DF92820FFF74F
:10535C000DFF30462946224643460097FFF764FF6F
:10536C00BDE8FF812DE9FF4102AF06460D4614460C
:10537C00984638460621BDF82820FFF7D7FE304660
:10538C002946224643460097FFF74EFFBDE8FF81B2
:10539C002DE9FF4102AF06460D46144698463846A5
:1053AC000621BDF92820FFF7E1FE304629462246AA
:1053BC0043460097FFF738FFBDE8FF812DE9F04128
:1053CC0086B002AF06460D461446984638460D2167
:1053DC000C9AFFF7ABFE304629462246434600970F
:1053EC00FFF722FF06B0BDE8F0812DE9F04186B051
:1053FC0002AF06460D461446984638460D210C9AC7
:10540C00FFF7B4FE30462946224643460097FFF785
:10541C000BFF06B0BDE8F081F0B5254B00269C884B
:10542C0087B005464FF4A072304610230F46214634
:10543C000096FFF72AFE1F4A3046D388591CD180AC
:10544C00009321464FF6FF723346FFF78BFF95B161
:10545C002E4600E001363378002BFBD1402021464C
:10546C004FF6FF720095FFF7DFFEC5F10105AD1990
:10547C00ED004035ADB203AE082130463A46FFF799
:10548C0039FE00234FF6FF72214628468DF8143062
:10549C000096FFF7C9FE103CA4B2054B14F4004F64
:1054AC0018BFE0229C8018BF9A8007B0F0BD00BFE7
:1054BC00040000206A010020044B012A0CBFD3F821
:1054CC00F015D3F8F41503F087BA00BFB48C0008BC
:1054DC002DE9F04186B003AF06460D4614469846BA
:1054EC00384605219DF83020FFF7E6FF3046294667
:1054FC00224643460097FFF797FE06B0BDE8F081C1
:10550C006C4A4FF033332DE9F04713606A4D6B4A08
:10551C00DFF8B8A10124022610274FF020081360F1
:10552C002046C5F800802F602E60CAF80040FFF7B7
:10553C0065FB634B20461C60FFF760FBCAF800401C
:10554C000520FFF75BFBFF202146FFF7D9FCF3207A
:10555C000821FFF7D5FC5B4BF3221A605A4B20460F
:10556C001E604FF48071C3F80080C5F800802E6077
:10557C00FFF7C6FC30464FF4E061FFF7C1FC032097
:10558C003021FFF7BDFC082040F20231FFF7B8FCD8
:10559C0009200021FFF7B4FC0A200021FFF7B0FC22
:1055AC0038464FF4F261FFF7ABFC11200521FFF7F1
:1055BC00A7FC00211220FFF7A3FC13200021FFF70A
:1055CC009FFC6420FFF71AFB384641F2B021FFF72D
:1055DC0097FC3220FFF712FB07211120FFF790FCFC
:1055EC003220FFF70BFB12208C21FFF789FC1320D4
:1055FC004FF4B851FFF784FC1A212920FFF780FCE7
:10560C003220FFF7FBFA30200021FFF779FC312024
:10561C0040F20751FFF774FC32200321FFF770FCB6
:10562C0035204FF40071FFF76BFC36204FF483717B
:10563C00FFF766FC37200021FFF762FC382040F2B0
:10564C000751FFF75DFC39204FF48271FFF758FCCE
:10565C003C204FF40071FFF753FC3D200521FFF770
:10566C004FFC50200021FFF74BFC5120EF21FFF79E
:10567C0047FC52200021FFF743FC532040F23F111E
:10568C00FFF73EFC60204FF42741FFF739FC612007
:10569C002146FFF735FC90203321FFF731FC072022
:1056AC0040F23311FFF72CFC3220BDE8F047FFF736
:1056BC00A5BA00BF041001401014014000180140AD
:1056CC00141001400C18014014140140101001403A
:1056DC00014B01221A7070470C000020034B1A7802
:1056EC00104612B100221A70012070470C000020E5
:1056FC0082B04FF480730193019B013B0193019B9A
:10570C00002BF9D102B0704703F09EB82DE9F0419F
:10571C000C460546174601F09DF8204601F0BEFAEE
:10572C00002605E0A95B01F009FA023FBFB2023680
:10573C003019002FF6D1BDE8F04101F097B838B51B
:10574C00054640F6FF7400E0013CFFF7B7FAA842AB
:10575C0002D0002CF8D102E00CB1002038BDFF20A3
:10576C0038BD38B50025FFF7A9FA00F01F040B2C43
:10577C0007D00D2C05D0052C05D1FFF79FFA00287A
:10578C00FBD0204638BD0135412DECD1F5E713B5E2
:10579C000B0E8DF801300B0C40F040008DF80230F0
:1057AC000B0A8DF800008DF803308DF804108DF87D
:1057BC00052042B100241DF804000134FFF796FACD
:1057CC00062CF8D10DE014461DF804000134FFF747
:1057DC008DFA052CF8D1044802B0BDE8104001F058
:1057EC00B5BC02B010BD00BF00380040F8B5184B76
:1057FC004FF480521A60FFF77BFF00200146952280
:10580C00FFF7C5FF0120FFF79AFFF8B9FF24114EEF
:10581C004FF480553560FF20FFF768FA0C4B0021E0
:10582C001D6001200A46FFF7B2FF0020FFF787FF3B
:10583C00074620B1013CE4B2002CE8D106E02CB1C3
:10584C003560FF20FFF752FA3846F8BDFF20F8BD4F
:10585C00140C0140100C01400D4B70B54FF48054EA
:10586C001C60FFF745FF00210A460D20FFF78FFF54
:10587C00FFF724FA0546FFF721FA064B06461C6093
:10588C00FF2045EA0625FFF731FAA8B270BD00BF2C
:10589C00140C0140100C014030B5424B4FF48052B7
:1058AC001A6085B00446FFF723FF00210A200A4640
:1058BC00FFF76DFF0020FFF742FF08B1FF2512E054
:1058CC00FE20FFF73CFF054630B9FFF7F7F90DF85E
:1058DC0005000135102DF8D1FF20FFF707FAFF2046
:1058EC00FFF704FA0025304B4FF480521A60FF206A
:1058FC00FFF7FCF99DF800309DF8022023709DF80D
:10590C00013028461B02638063889BB2134363807B
:10591C009DF803309DF804201B066360636843EA1E
:10592C000243636063689DF8052043EA02236360C9
:10593C0063689DF8062042EA030363609DF8073014
:10594C009DF80A2023729DF8083063729DF8093087
:10595C001B06E360E36843EA0243E360E3689DF8F7
:10596C000B2043EA0223E360E3689DF80C2042EA33
:10597C000303E360227C9DF80D3042EA131203F01E
:10598C000F031B0222746382638A9DF80E209BB264
:10599C00134363829DF80F305B08237501236375F5
:1059AC0005B030BD140C0140100C014030B5714BEA
:1059BC004FF480521A6085B00446FFF799FE00211F
:1059CC0009200A46FFF7E3FE0020FFF7B8FE08B1F6
:1059DC00FF2510E0FE20FFF7B2FE054630B9FFF7B9
:1059EC006DF90DF805000135102DF8D1FFF766F9AA
:1059FC00FFF764F90025604B4FF480521A60FF20CA
:105A0C00FFF774F99DF800309A0903F03C039B08EA
:105A1C00227063709DF801300022A270E3709DF833
:105A2C00023023719DF8033063719DF804301B0123
:105A3C00E380E1889DF8053089B241EA131103F047
:105A4C000F03E18023729DF80630D9096172C3F30C
:105A5C008011A172C3F34011E172C3F300112173E1
:105A6C00627322789DF80810012A9DF8092007D14D
:105A7C000902E181E3899BB243EA0202E28120E060
:105A8C0003F003039B02E381E3899DF807009BB2BB
:105A9C0043EA8003E381E3899BB243EA9113E381F8
:105AAC0001F03803DB08237401F00701530961741A
:105ABC00A37402F01C0302F003029B085200E3746F
:105ACC002275227D9DF80A30284642EAD3122275AF
:105ADC0003F07C0203F003039208DB006275A375EC
:105AEC00A27D9DF80B3042EA531203F01F03A275FE
:105AFC00E3759DF80C30DA09227603F06002520946
:105B0C00627603F01C0203F0030392089B00A2765A
:105B1C00E376E27E9DF80D3042EA9312E276C3F30F
:105B2C004012227703F0010300226277A3779DF8DD
:105B3C000E30DA09E277C3F3801284F82020C3F325
:105B4C00401284F82120C3F3001284F8222003F0C1
:105B5C000C02920803F0030384F8232084F8243009
:105B6C009DF80F305B0884F82530012384F826302B
:105B7C0005B030BD140C0140100C014008B51348A1
:105B8C00FFF714FF114A1378012B114B05D1D28961
:105B9C0092B2013292021A6012E092F814C0117A99
:105BAC00D0891A4680B201300CF1020398400123CF
:105BBC008B4044BF03F5FE7303335B124343136006
:105BCC00044B4FF400721A6008BD00BF3401002072
:105BDC00600100205C01002070B51E4B15461A7840
:105BEC0004460132D2B20E461A701A4B1B78012BA6
:105BFC00FBD8194B4FF480521A60FFF779FD112036
:105C0C0031460022FFF7C3FD0020FFF798FD88B94D
:105C1C00FE30FFF794FD064620B10BE0FFF74EF87F
:105C2C00A0550136AE42F9D3FFF748F80024FFF730
:105C3C0045F800E0FF24094B4FF480521A60FF2016
:105C4C00FFF754F8034B20461A78013AD2B21A7077
:105C5C0070BD00BF74010020140C0140100C0140F9
:105C6C0070B5214B15461A7804460132D2B20E4655
:105C7C001A701D4B1B78012BFBD81C4B4FF4805218
:105C8C001A60FFF735FD314618200022FFF77FFD23
:105C9C000020FFF754FD0646B0B9FF30FFF726F899
:105CAC00FE20FFF723F803E0A05DFFF71FF8013695
:105CBC00AE42F9D3FFF702F8FFF700F8FFF751FDFA
:105CCC00052801D1002400E0FF24094B4FF4805239
:105CDC001A60FF20FFF70AF8034B20461A78013AA6
:105CEC00D2B21A7070BD00BF74010020140C0140B8
:105CFC00100C014010B5FFF713F8074B4FF480520E
:105D0C001A600024FF200134FEF7F0FF0A2CF9D1B1
:105D1C00BDE810406AE500BF100C014013B5214BE3
:105D2C009A7C597C120442EA0162197D0A43D97C9F
:105D3C0042EA01220192997DDA7D42EA0122009227
:105D4C00194A019C1268194954434C60009C6243E7
:105D5C008A60496802EB010C15490968B1EB5C2FAC
:105D6C0009D22A2801D1283800E0002000F0DCF804
:105D7C00052021210DE09B68934201D101200FE009
:105D8C002A2801D1283800E0002000F0CDF80520A9
:105D9C00242100F0DBFB0120002100F0E1F80020C1
:105DAC001CBD00BFB00300205C010020740100206A
:105DBC0060010020214B10B5DA68002340320AE064
:105DCC001F4CC16813F804C0091881F810C0C168D1
:105DDC0001330131C1601948C1689142F0D3194BAC
:105DEC0042681B889A1842608268D31A8360DB056C
:105DFC00DB0D43B9C36041684FF400721030A1F55C
:105E0C000071FFF72DFF104B0E4A99681288022083
:105E1C008A1A9A604FF4405102F0C3F9074B9B6801
:105E2C001BB10A4B1B78042B07D1044B002001211A
:105E3C00D860BDE8104000F093B810BD740100208C
:105E4C00D0030020100400209C030020AC03002091
:105E5C0038B5224CD4F8103204F1100583B96168BE
:105E6C004FF400722846FFF7B7FE284698214022CF
:105E7C0002F0F8F84FF4E073C4F8103240230EE04F
:105E8C00D4F8140298212818402202F0EBF8D4F828
:105E9C001032403BC4F81032D4F814324033012095
:105EAC004021C4F8143202F0F3FA0120302102F040
:105EBC0062F90A4B0A495A68886840325A609A68F3
:105ECC004038403A9A6088603AB9C3F81022C3F857
:105EDC0014225A60034B03321A7038BD740100202F
:105EEC009C030020AC03002038B5FEF77DFE0C4C63
:105EFC0020B9012262700B4A106038BD63780BB96F
:105F0C00012038BDFFF7F6FE054608B1002038BD6C
:105F1C00FFF734FEFFF7DCFB6570012038BD00BFD6
:105F2C000C00002060010020012810B5044609D0A7
:105F3C0002D3022813D107E001201021BDE8104044
:105F4C0002F019B9022004E00120102102F013F92B
:105F5C0020464FF48051BDE8104002F022B910BD2C
:105F6C0070B50D4C0D4B20730D2220460D4698211B
:105F7C00236002F077F801200D2102F089FA052345
:105F8C0023743DB1013B012030212374BDE87040E6
:105F9C0002F0F1B870BD00BF9C0300205553425372
:105FAC0010B50C462246982102F05CF821460120DF
:105FBC0002F06EFA0120302102F0DDF8044B0322CE
:105FCC001A749A68141B00229C601A7310BD00BFCF
:105FDC009C03002010B5114B1B7C023B032B1BD8E0
:105FEC00DFE803F0060F02020C4B00221A740CE0DF
:105FFC000A4B93F82330282B0ED1BDE8104000F04B
:10600C004DBB00200121FFF7ABFF02204FF44051A4
:10601C00BDE8104002F0C5B810BD00BF9C030020C5
:10602C0070B5002305E005F114023435E95CD15458
:10603C0001334E4DB5F874209342F4D3AB691F2A4B
:10604C006B60EB69AB600BD002200024FFF76CFF98
:10605C0005201A216C6100F079FA0120214692E0AA
:10606C006A69434B9A4240F0858095F8213023B9F8
:10607C0095F822300BB1102B05D90220FFF754FFF5
:10608C00052024217BE095F82330252B55D01CD8F6
:10609C00122B3CD00BD8042B63D004D8002B50D03F
:1060AC00032B67D12FE0082B5BD00A2B29E01B2B8D
:1060BC0031D004D8152B54D01A2B5BD131E01E2BC8
:1060CC002BD0232B35D01D2B1BE0882B49D00CD883
:1060DC002F2B42D004D8282B37D02A2B4AD138E08A
:1060EC00552B3ED05A2B45D11FE09E2B39D003D8CF
:1060FC008A2B36D08F2B04E0AA2B32D0AF2B30D08A
:10610C00A82B37D12DE0BDE8704000F0F1BABDE806
:10611C00704000F065BB00F01FFABDE8704000F065
:10612C001BBABDE8704000F0F5BABDE8704000F055
:10613C00EBBABDE8704000F025BBBDE8704000F044
:10614C00EFBABDE8704000F055BABDE8704000F001
:10615C00A5BABDE8704000F071BABDE8704000F01F
:10616C002FBABDE8704000F0FBB900BF9C030020C3
:10617C00555342430220FFF7D7FE0520202100F0A3
:10618C00E5F901200021BDE87040E9E670B5144C3A
:10619C00022094F8235002F0CDF9D8210246A4F83D
:1061AC00740004F1340001F074FF207C10B101285C
:1061BC0009D102E0BDE8704032E72A2D04D1BDE8D8
:1061CC00704000F03BBA0220FFF7AEFE0520242100
:1061DC0000F0BCF902200021BDE87040C0E600BF11
:1061EC009C030020FFF7D2BFFFF7F4BE104B114AFF
:1061FC00196810B589B211800F491288098801EA13
:10620C00020212F4806F05D04FF6FF321A600B4B6E
:10621C005B689847074B084A1B88128802EA0303FD
:10622C0013F4004F03D0BDE8104001F04BBE10BD7D
:10623C00445C00401404002058040020D0000020CE
:10624C007047704701B900B10220704728B9044A61
:10625C004FF001011268118270470248704700BF6D
:10626C002C0400201804002010B50C4B1B681A7865
:10627C0002F07F02212A0FD1FE280DD15C885CB977
:10628C005A68B2F5803F07D1054A5C829A61204674
:10629C00FFF7DCFF204610BD022010BD2C040020AF
:1062AC00596200080D4B0E4A1B6810B500249C72F5
:1062BC0014600C4A48F2004111800B4A4FF404411F
:1062CC0011600A4AD2795A7201F0D4FA084B01349F
:1062DC009C42F9D1074B05221A7010BD2C040020EA
:1062EC00445C004058040020405C0040C092000810
:1062FC00A08601001E040020034B1B68D978034BB9
:10630C0003EBC10101F086BA2C0400209800002098
:10631C00014901F07FBA00BFC0000020014901F023
:10632C0079BA00BFC800002010B50E4B1B681A7854
:10633C0002F07F02212A12D1FF2810D15A8872B99B
:10634C005C6864B9FE3802F03AF8022002F025F8D5
:10635C00054B064A20461A60054B1C7010BD0220E6
:10636C0010BD00BF2C040020B00300205553424345
:10637C00AC03002008B5074B1B689B7A43B1012086
:10638C0002F01DF8022002F008F8034B00221A70EC
:10639C0008BD00BF2C040020AC03002038B52D4BE9
:1063AC0000249C72204601F0B1FE20464FF400718F
:1063BC0001F0CBFE284D2021204601F0DCFE1821F7
:1063CC00204602F037F8204695F8641002F082F867
:1063DC005821204602F01BF8204601F05BFF2046B6
:1063EC0001F030FF0120214601F0AFFE0120982181
:1063FC0002F00DF80120202101F0BDFE0120214604
:10640C0001F0CFFE0220214601F09FFE0220D82190
:10641C0002F010F8022095F8641002F05BF80220EC
:10642C004FF4405101F0BDFE0220214601F0A3FEC5
:10643C0095F86410204602F04DF8204601F002FF5A
:10644C00204601F0F5F9054B054A1A60054B1C7006
:10645C0038BD00BF3004002098000020B00300209D
:10646C0055534243AC030020044B1A68044B9A4228
:10647C0002D00220FFF758BD704700BFB0030020C8
:10648C0055534243054B1A6892B242F008021A6007
:10649C001A6892B242F004021A607047405C0040E5
:1064AC00054B4FF6FB72196801EA02021A604FF4B1
:1064BC0004421A60704700BF405C0040072818BFB8
:1064CC00204B10B51F4C18BF18702378052B35D8EE
:1064DC00DFE803F003070B101823FFF7E1FF062397
:1064EC0006E0FFF7DDFF042302E0022363700133B3
:1064FC00237010BD6378013BDBB263706378FBB92A
:10650C00042218E0104B1A6892B242F010021A6082
:10651C0005232370DB18637010BD6378013BDBB27D
:10652C006370637863B9084A4FF6EF73116801EA38
:10653C00030313600622034B1A7010BD062323704D
:10654C0010BD00BF1C040020405C0040014B987043
:10655C00197370474000002000200121FFF700BD97
:10656C000B4B10B5986830B193F90C30002B01DA55
:10657C00002000E00220FFF7D7FC05202021FFF7C8
:10658C00E5FF01200021BDE81040FFF7E9BC00BF8A
:10659C00B0030020094B10B5986848B10220FFF7F2
:1065AC00C3FC05202021FFF7D1FF0120002100E0D2
:1065BC000121BDE81040FFF7D3BC00BFB0030020A1
:1065CC000B4B10B59A682AB9187C10F0040001D155
:1065DC00012108E00220FFF7A7FC05202421FFF78A
:1065EC00B5FF01200021BDE81040FFF7B9BC00BF8A
:1065FC00B003002010B5FFF777FC044648B9023011
:10660C003A21FFF7A3FF01200146FFF7A9FC204622
:10661C000BE0FFF763F860B106202821FFF796FF27
:10662C0001200146FFF79CFC0020BDE81040FFF75D
:10663C007BBC0121BDE81040FFF792BC70B5154D35
:10664C002C78002C1FD12A20FFF768FB002820D0C3
:10665C00114B93F90C30002B08DB012302204FF473
:10666C0040512B70BDE8704001F09BBD2046FFF7F8
:10667C005BFC05202421FFF769FF01202146BDE8C2
:10668C007040FFF76DBC012C03D1BDE87040FFF7E3
:10669C0091BB70BDAC030020B003002010B5124CB0
:1066AC002378CBB92820FFF739FB00281AD00F4BE1
:1066BC0093F90C30002B02DA022323700EE0022037
:1066CC00FFF732FC05202421FFF740FF0120014693
:1066DC00BDE81040FFF744BC022B03D1BDE81040CD
:1066EC00FFF7B6BB10BD00BFAC030020B003002009
:1066FC00034B0448D97C122928BF1221FFF750BC48
:10670C00B00300204000002001480821FFF748BCDE
:10671C003800002001480421FFF742BC340000205F
:10672C0010B5FFF7E1FB044660B902303A21FFF7E0
:10673C000DFF01200146FFF713FC2046BDE8104079
:10674C00FFF7F2BB0C4B0D481B680821013B1A0EDE
:10675C0002701A0C4270C3701A0A094B82701B68C3
:10676C001A0E02711A0C42711A0A8271C371BDE8B9
:10677C001040FFF715BC00BF6001002094030020FF
:10678C005C01002010B5FFF7AFFB044660B9023086
:10679C003A21FFF7DBFE01200146FFF7E1FB204623
:1067AC00BDE81040FFF7C0BB0A4B0B481B680C211F
:1067BC001A0E02711A0C4271C3711A0A074B8271BC
:1067CC001B681A0C42721A0A8272C372BDE810401E
:1067DC00FFF7E6BB60010020540000205C010020A4
:1067EC00074B1A7C12F0010F02D00521054804E07A
:1067FC00D97C0548242928BF2421FFF7D1BB00BF31
:10680C00B00300208C03002010000020044B1A68F9
:10681C0002F038021A601A6840EA02021A607047E5
:10682C0000200240044B1A6822F008021A601A6811
:10683C0040EA02021A60704700200240044B1A68BA
:10684C0022F010021A601A6840EA02021A607047BD
:10685C0000200240024B034A5A60034A5A607047B8
:10686C000020024023016745AB89EFCD024B1A692A
:10687C0042F080021A61704700200240014BD86937
:10688C008008704700200240014B186A704700BF17
:10689C0000200240024BD869400800F0010070470C
:1068AC0000200240024B1868400900F001007047BC
:1068BC000020024019B1054B1A69104303E0034B49
:1068CC001A6922EA00001861704700BF00200240DC
:1068DC000128064B03D1D86900F001007047DB6832
:1068EC0018420CBF00200120704700BF002002405E
:1068FC00014BD860704700BF002002400A4BDA6899
:10690C0012F0010F01D001207047DA6812F0040F69
:10691C0001D002207047D86800F01000002814BF86
:10692C0003200420704700BF0020024013B504462A
:10693C00FFF7E4FF0CE000230193FF3301E0019B20
:10694C00013B0193019B002BF9D1FFF7D7FF013CD1
:10695C00012802D1002CEED100E004B905201CBDA9
:10696C00F8B5114E114B0446B360114B0F20B360B8
:10697C000D461746FFF7DAFF042814D1336944F0AB
:10698C00F80443F01003336125430A4B2F430B30BB
:10699C005F80FFF7CBFF012805D0326941F6EF731A
:1069AC0002EA03033361F8BD00200240230167456E
:1069BC00AB89EFCD00F8FF1F38B5054640F6FF70E8
:1069CC00FFF7B4FF04283BD11E4C1F4B40F6FF7061
:1069DC00A3601E4BA360236943F02003236123694A
:1069EC0043F040032361FFF7A1FF042820D1226963
:1069FC0041F6DF7302EA03032361236943F01003BA
:106A0C0023611DB1124B4FF0000202E0104B4FF00E
:106A1C00A5021A8040F6FF70FFF788FF01280FD0FF
:106A2C00084A41F6EF73116901EA0303136138BD9B
:106A3C00012805D0226941F6DF7302EA03032361C2
:106A4C0038BD00BF0020024023016745AB89EFCD64
:106A5C0000F8FF1F10B504460F20FFF767FF04284E
:106A6C003ED1204B2049E44399602049E2B2996021
:106A7C001969FF2A41F01001196106D01C4B0B302B
:106A8C001A81FFF753FF042821D104F47F431B0A1A
:106A9C00FF2B06D0164A0F205381FFF747FF04281F
:106AAC0015D104F47F031B0CFF2B06D0104A0F20CA
:106ABC009381FFF73BFF042809D1240EFF2C01D151
:106ACC00042006E00A4B0F20DC81FFF72FFF012882
:106ADC0006D0044A41F6EF73116901EA030313610E
:106AEC0010BD00BF0020024023016745AB89EFCDEC
:106AFC0000F8FF1F70B504460F200E46FFF716FF77
:106B0C00042814D10A4D0B4B0B30AB600A4BAB6015
:106B1C002B6943F010032B612680FFF707FF012838
:106B2C0005D02A6941F6EF7302EA03032B6170BDAD
:106B3C000020024023016745AB89EFCD70B50446B8
:106B4C000F200E46FFF7F2FE042810D1084D0B3033
:106B5C002B6943F001032B612680FFF7E7FE012828
:106B6C0005D02A6941F6FE7302EA03032B6170BD5E
:106B7C000020024070B504460F200E46FFF7D6FEEB
:106B8C00042821D1114D0B302B6943F001032B61EB
:106B9C00B3B22380FFF7CAFE04280DD1360C0B309C
:106BAC006680FFF7C3FE01280ED02A6941F6FE73FA
:106BBC0002EA03032B6170BD012805D02A6941F656
:106BCC00FE7302EA03032B6170BD00BF002002407C
:106BDC0010B540F6FF70FFF7A9FE042834D11B4C0A
:106BEC001B4B40F6FF70A3601A4BA360236943F064
:106BFC0020032361236943F040032361FFF796FED2
:106C0C00042819D1226941F6DF7302EA03032361D8
:106C1C0023694FF0A50243F0100323610E4B0B3098
:106C2C001A80FFF783FE01280ED0226941F6EF731C
:106C3C0002EA0303236110BD012805D0226941F645
:106C4C00EF7302EA0303236110BD00BF0020024072
:106C5C0023016745AB89EFCD00F8FF1F10B540F657
:106C6C00FF70FFF763FE042814D10B4C40F6FF7045
:106C7C00236943F004032361236943F04003236138
:106C8C00FFF754FE012805D0226941F6FB7302EA96
:106C9C000303236110BD00BF0020024038B5054638
:106CAC0040F6FF70FFF742FE042815D10B4C40F65E
:106CBC00FF70236943F0020323616561236943F08C
:106CCC0040032361FFF732FE012805D0226941F60B
:106CDC00FD7302EA0303236138BD00BF00200240AC
:106CEC000B4B4FF0FF3140F2FF72C3F88010C3F82A
:106CFC008420C3F88011C3F88421002303F1C00160
:106D0C00034A013300200B2B42F82100F6D17047C7
:106D1C0000E100E0094B4FF0206209495A60002263
:106D2C009A60D9601A615A619A61DA611A625A6280
:106D3C00013A9A62DA621A63704700BF00ED00E014
:106D4C000000FA0540F0BE60024B40F42020D860F1
:106D5C00704700BF00ED00E030B5C27803786AB32D
:106D6C001C4A4478D2688078D24302F4E062120A5A
:106D7C00C2F1040114FA01F10F24D44004400C4375
:106D8C0003F0030C4FEACC0C2401FF2004FA0CF4A2
:106D9C0000FA0CF09908104AC03152F8215025EA3B
:106DAC00000C04EA000040EA0C0042F821005909EA
:106DBC00012003F01F0310FA03F307E05909012225
:106DCC0003F01F0312FA03F3034A203142F8213077
:106DDC0030BD00BF00ED00E000E100E000230370D7
:106DEC0043708370C3707047034B04485B6803EABD
:106DFC000000000B704700BF00ED00E000F03F000A
:106E0C00012200F01F0312FA03F34009044A403038
:106E1C0052F820001840984214BF002001207047FF
:106E2C0000E100E0014B1860704700BF00EF00E08C
:106E3C004209012300F01F0013FA00F0024B6032EC
:106E4C0043F82200704700BF00E100E0024B586895
:106E5C008005800D704700BF00ED00E0012200F0BE
:106E6C001F0312FA03F34009044A803052F8200041
:106E7C001840984214BF00200120704700E100E048
:106E8C00014B1868704700BF00ED00E021F0604135
:106E9C0021F07F01014B01439960704700ED00E048
:106EAC00014A024BDA6070470400FA0500ED00E07D
:106EBC00014A024BDA6070470100FA0500ED00E070
:106ECC0019B1054B1A69104303E0034B1A6922EA06
:106EDC0000001861704700BF00ED00E000F01F00DB
:106EEC00012313FA00F019B1044B5A6A104303E062
:106EFC00024B5A6A22EA00005862704700ED00E02B
:106F0C00144B30B5DC68FF256FEA040C0CF4E06C14
:106F1C004FEA1C2CCCF1040425FA0CFCA14002EA2B
:106F2C000C0C00F0C002400900F0180085404CEA3F
:106F3C000101090111FA00F09209063253F82240BE
:106F4C0024EA050543F8225053F82250284343F80D
:106F5C00220030BD00ED00E0830A012203F00F0394
:106F6C0012FA03F3044A506A03EA0000984214BF71
:106F7C0000200120704700BF00ED00E000F01F0072
:106F8C00012111FA00F0034B5A6840EA02025A60E0
:106F9C00704700BF00ED00E000F01F010139012037
:106FAC0010FA01F1024B5A6841EA02025A6070472A
:106FBC0000ED00E0830B012203F00F0312FA03F340
:106FCC00044A506A03EA0000984214BF00200120D2
:106FDC00704700BF00ED00E0830C13F0030302D1F7
:106FEC000A4BD86A7047012B0DD1084A030D03F0E8
:106FFC000303906ADA00D040022B14BF00F00F009C
:10700C0000F0FF007047014B186B704700ED00E07B
:10701C00034B10F4800F0CBF586B986B704700BF7C
:10702C0000ED00E0FDF7C1BA0001FDF7BBBAFDF7BA
:10703C00B7BAFDF7B3BAFDF7AFBAFDF7ABBA00BFFD
:10704C00B1F802C00B8802884CEA0303B1F804C003
:10705C0002F4415243EA0C03B1F806C043EA0C03B4
:10706C00B1F808C043EA0C03B1F80AC043EA0C03B8
:10707C00B1F80CC043EA0C03B1F80EC043EA0C03A0
:10708C0042EA03039BB203800B8A038270470023FE
:10709C00038043808380C380038143818381C381C8
:1070AC004FF007030382704721B103889BB243F072
:1070BC00400304E0038823F040031B041B0C0380F3
:1070CC007047090901238B409BB21AB1828892B296
:1070DC00134303E0828892B222EA03038380704751
:1070EC001AB183889BB2194303E083889BB223EACD
:1070FC0001018180704781817047808980B270471F
:10710C004FF6FF639942038804D09BB243F480731B
:10711C000380704719400180704721B183889BB26E
:10712C0043F0040304E0838823F004031B041B0CCA
:10713C0083807047038823F400631B041B0C0380BB
:10714C0003889BB241EA03030380704703889BB218
:10715C0043F480530380704721B103889BB243F4FE
:10716C00005304E0038823F400531B041B0C03801E
:10717C007047012902D0008B80B27047808A80B2A0
:10718C007047008A80B27047B1F5804F038803D1F5
:10719C009BB243F4804303E023F480431B041B0C99
:1071AC0003807047038919420CBF002001207047EF
:1071BC00202906D1038903889BB243F04003038046
:1071CC007047038940291EBF9BB223EA010101814C
:1071DC007047012301F00F0213FA02F2B0F804C059
:1071EC0000891FFA8CFC80B2104006D009098B4034
:1071FC001CEA030F0CBF002001207047552906D153
:10720C00038903889BB243F04003038070475629DF
:10721C00038900D1704701F00F01012212FA01F12C
:10722C009BB223EA010101817047104B10B59842C3
:10723C000ED00F4B984217D101214FF4805000F023
:10724C0069F94FF480500021BDE8104000F062B99C
:10725C0001214FF4804000F06BF94FF48040002185
:10726C00BDE8104000F064B910BD00BF003800400C
:10727C0000300140104B00221421DA601A61596170
:10728C009A61DA61196841F00101196058680B497B
:10729C0000EA01015960196821F0847121F48031F0
:1072AC001960196821F480211960596821F4FE01D4
:1072BC0059609A60704700BF001002400000FFF850
:1072CC000C4BB0F5803F1A6822F480321A601A68B1
:1072DC0022F480221A6003D0B0F5802F09D104E08B
:1072EC001A6842F480321A6070471A6842F4A0227D
:1072FC001A60704700100240034B1A6822F0F80223
:10730C0042EAC0021A60704700100240014B18603C
:10731C00704700BF00004242044B5A6822F47C12B2
:10732C0040EA02020A435A60704700BF0010024054
:10733C00014B1860704700BF60004242034B5A6813
:10734C0022F0030240EA02025A6070470010024029
:10735C00024B586800F00C00704700BF0010024050
:10736C00034B5A6822F0F00240EA02025A6070475E
:10737C0000100240034B5A6822F4E06240EA020219
:10738C005A60704700100240034B5A6822F4605256
:10739C0042EAC0025A6070470010024019B1054B16
:1073AC001A78104303E0034B1A7822EA0000187095
:1073BC00704700BF09100240014B1860704700BFB6
:1073CC00D8004242034B5A6822F4404240EA02027F
:1073DC005A60704700100240064B002201281A70B8
:1073EC001A7002D0042804D101E0187070470522ED
:1073FC001A70704720100240014B1860704700BF94
:10740C0080044242024B1A6A40EA02021A62704736
:10741C0000100240014B1860704700BF3C04424210
:10742C00234B10B55A6802F00C02042A14D0082A17
:10743C0012D15A68596802F47012920C023211F48B
:10744C00803F03D05B6813F4003F01D0194B00E080
:10745C00194B5A43026001E0174B0360144A174B57
:10746C005168046801F0F0010909595C34FA01F122
:10747C004160546804F4E06C4FEA1C2C13F80C4087
:10748C0031FA04F48460546804F4605C4FEADC2C38
:10749C0013F80CC021FA0CF1C160526802F440429E
:1074AC0003EB92331B7CB1FBF3F1016110BD00BF08
:1074BC000010024000093D0000127A0060930008A1
:1074CC0019B1054B5A69104303E0034B5A6922EA80
:1074DC0000005861704700BF0010024019B1054B05
:1074EC009A69104303E0034B9A6922EA0000986101
:1074FC00704700BF0010024019B1054BDA69104308
:10750C0003E0034BDA6922EA0000D861704700BF40
:10751C000010024019B1054BDA68104303E0034B2D
:10752C00DA6822EA0000D860704700BF0010024001
:10753C0019B1054B1A69104303E0034B1A6922EA8F
:10754C0000001861704700BF00100240014B18602A
:10755C00704700BF40044242014B1860704700BFA7
:10756C004C004242014B1870704700BF071002409C
:10757C004309012B02D1074B1B6804E0022B054B7E
:10758C000CBF1B6A5B6A00F01F0033FA00F000F0BE
:10759C00010070470010024008B53120FFF7E8FFEA
:1075AC00084B18705A6801325A601A7812B95B6825
:1075BC00FF2BF2D13120FFF7DBFF003818BF012081
:1075CC0008BD00BF20040020024B5A6A42F08072B2
:1075DC005A62704700100240034B9B6818420CBF64
:1075EC0000200120704700BF00100240014B1870B2
:1075FC00704700BF0A10024010B5074C20B9226832
:10760C004FF00101118210BD044B1B681B68984799
:10761C0020680A3010BD00BF2C040020500400204C
:10762C0010B50A4B0A491B684978DA7891420AD39B
:10763C00997841B99C8834B99A72064B1B685B687F
:10764C009847204610BD022010BD00BF2C0400201E
:10765C00000100205004002010B5074C20B922680E
:10766C004FF00101118210BD044B1B689B689847B9
:10767C0020680C3010BD00BF2C04002050040020EA
:10768C0038B50E4C0E4B22681B6850799B69D1782B
:10769C00984723689A7A7AB170B91A7962B99D7849
:1076AC0055B9084B1B68DB689847236828465A79FC
:1076BC00DA72DA781A7338BD022038BD2C04002037
:1076CC004C0400205004002008B50246244B20B97D
:1076DC001B684FF0020119823FE0224A4FF0000173
:1076EC001B681180197811F07F0112D15B7A13F0AD
:1076FC00200F03D0117841F00201117013F0400FEC
:10770C00184B1A7814BF42F0010222F001021A70D1
:10771C001EE0012921D0022901D000221DE0597957
:10772C0001F00F039B0003F1804303F5B84311F004
:10773C00800F1B6803D003F03003102B03E003F41D
:10774C004053B3F5805F03D1137843F001031370FA
:10775C00054B1B681B699847024A104608BD00BFC1
:10776C002C040020280400205004002010B51D4BD0
:10777C001D4C186894F800C0417921F080029300E8
:10778C0003F1804303F5B8431B6811F0800F14BF5D
:10779C0003F0300303F44053624521D24488FCB912
:1077AC00F3B1837AE3B1930003F1804311F0800FBE
:1077BC0003F5B843196806D048F6BF7201EA020215
:1077CC0082F0100205E04BF68F7201EA020282F49D
:1077DC0080521A60054B1B689B699847002010BDAE
:1077EC00022010BD2C0400200001002050040020B9
:1077FC0008B5064B1B685A7A42F020025A72044BA9
:10780C001B68DB699847002008BD00BF2C040020D2
:10781C0050040020054B1A68538A18B98988CB1A72
:10782C001382704708681818704700BF2C0400209A
:10783C0030B50E4B1C78002310E05FFA83FC4FEA46
:10784C008C0202F1804202F5B842156848F68F713D
:10785C0005EA010141EA0C0111600133A342ECD3AA
:10786C00034B40F08000186030BD00BF00010020C9
:10787C004C5C0040704708B50B4B002093F82C1063
:10788C0000F028FE094B1B68187A082807D1084B12
:10789C004FF480521A80074B4FF010021A800928BF
:1078AC0014BF0020012008BDD00000202C040020B3
:1078BC005C0400205E04002070B52D4B1C68237AFC
:1078CC00032B01D0052B46D1A369228AABB1A2B1FF
:1078DC00A58A954228BF154628469847238A06460E
:1078EC005B1B2382638A0020EB18638200F0C2FDCD
:1078FC002A460146304600F0CCFB238A5BB11D4B77
:10790C004FF4405200201A80014600F0C1FD1A4B82
:10791C004FF030021A80238AA28A9A4203D8144B61
:10792C0003221B6803E0124A1BB1136805221A726A
:10793C000DE0126806211172104A1168104A89B2C2
:10794C008A18520013600C4B4FF030021A80084B0F
:10795C001B681B7A06E0072B03D10A4B1B68DB68FC
:10796C0098470823024A12681372BDE8704082E7F8
:10797C002C0400205C0400205E040020505C0040BD
:10798C00023000204C040020F8B51B4B1C68238AE5
:10799C00227A3BB9042A05D1184B4FF010021A80F9
:1079AC00072625E0A58AAB4294BF042602269D42F9
:1079BC0028BF1D462846A36998470746002000F0BB
:1079CC004BFD2A460146384600F04CFB2946002068
:1079DC0000F05EFD238A4FF030025B1B2382638A2A
:1079EC00ED18064B65821A80054B4FF440521A80F5
:1079FC00014B1B681E72F8BD2C0400205E04002095
:107A0C005C04002010B5144B1B681A7A022A01D0B2
:107A1C00042A05D1FFF7B8FF0F4B1B681B7A14E043
:107A2C00062A11D15A78052A0AD11A7812F07F0F3A
:107A3C0006D1D878FFF7FCFE084B1B681B6A9847E9
:107A4C00074B1B689B6898470823034A12681372FC
:107A5C00BDE810400FE700BF2C04002050040020AC
:107A6C004C04002010B5304B1B68187810F07F00C8
:107A7C0004D15A7A22F020025A7210BD022851D138
:107A8C005A88002A4ED11A79002A4BD15A7922F001
:107A9C008000840004F1804404F5B8442168234C30
:107AAC0012F0800F94F800C014BF01F0300101F403
:107ABC004051604536D2002934D09B7A002B31D00E
:107ACC00840004F1804404F5B84412F0800F23685C
:107ADC000CD003F03003102B1ED1C4B2204600F0A2
:107AEC006EFC2046302100F046FB15E003F44053B9
:107AFC00B3F5805F10D128B90D4B93F82C1000F022
:107B0C00E9FC01E000F049FC22684BF68F7302EAB5
:107B1C00030383F440532360064B1B685B6998474F
:107B2C00002010BD022010BD2C04002000010020FC
:107B3C00D0000020500400208C4B2DE9F0411A6835
:107B4C008B4E8C4B92B2D31835685B001F682B7A26
:107B5C00092B1AD0BFB207F1005707F540577F0029
:107B6C003C4614F8013B2B707B780A376B70B4F8E9
:107B7C00030000F064FE6880B4F80700356800F07C
:107B8C005EFEA88033687F88DF80794C01232268F1
:107B9C001372D3885578002B62D1137813F07F03BE
:107BAC002ED1092D02D1FFF73BFD3BE0052D0DD168
:107BBC0092F90330002B4EDB9378002B4BD193883A
:107BCC00002B48D1937A002B37D044E0032D0BD1F6
:107BDC00D378012B27D193882BBB537A13F0200F2A
:107BEC0021D0FFF705FE1DE0012D1CD1D378012B10
:107BFC0019D19388BBB9537A13F0200F13D00AE034
:107C0C00012B04D10B2D0ED1FFF73AFD0AE0022B0C
:107C1C0009D1012D02D1FFF725FF03E0032D02D17D
:107C2C00FFF7A4FD48B1544B28461B685B69984785
:107C3C00032801D109230FE068B94C4B4FF03001F8
:107C4C001A684E4B92B2D3185B0000221A604C4B50
:107C5C001980062300E00823454A12681372C9E014
:107C6C00062D18D1137813F07F0F40F09380937882
:107C7C00012B03D1404B1B68DB696CE0022B03D159
:107C8C003D4B1B681B6A66E0032B40F083803A4B2C
:107C9C001B685B6A5FE0002D3BD15188002979D1CC
:107CAC00536823F47F43B3F5003F73D1137813F07B
:107CBC007F0303D19388002B6CD128E0012B0BD1CF
:107CCC002D4B50791B689B699847002862D123681B
:107CDC009B7A002B5ED01AE0022B5BD1537929489A
:107CEC0003F00F018A0002F1804202F5B8421268DB
:107CFC00007813F0800F14BF02F0300202F44052EF
:107D0C00814247D213F0700F44D1002A42D01E4B4F
:107D1C0022E0082D05D1137813F07F0F3AD11B4BBD
:107D2C001AE00A2D36D1137803F07F03012B31D1E1
:107D3C00937A002B2ED0518861BB536823F47F4378
:107D4C00B3F5803F26D10C4B50791B689B69984743
:107D5C0000BB0F4B00E0EBB1054A4FF0000112687D
:107D6C00002051829361984700201EE0505C004037
:107D7C002C040020043000204C0400200230002091
:107D8C005E04002000010020D5760008057600086E
:107D9C0065760008194B1A4C1B6822681B695078D1
:107DAC009847032801D1236806E0154B4FF6FF7165
:107DBC001B681A8A8A4201D1092203E0022800D0EA
:107DCC0012B908221A7215E093F9001000290BDA87
:107DDC00D9888A42094A88BF1982126892F82C20E5
:107DEC009A82FFF7D1FD05E003221A72054B4FF47E
:107DFC0040521A80BDE8F0413DE500BF4C04002024
:107E0C002C0400205C04002008B5064B06491A1D02
:107E1C001A6002221A73054A59621A62136898474B
:107E2C0008BD00BF2C04002004010020D00000205D
:107E3C0010B533E047F6FF7111601B881C4A03F044
:107E4C000F0313709B0003F1804303F5B8431C68C8
:107E5C00A4B214F4004F0BD0186840F68F7100EAEE
:107E6C00010119601278134B013A53F822309847EC
:107E7C0014F0800F12D00E4948F60F720B789B004D
:107E8C0003F1804303F5B843186800EA02021A6054
:107E9C000A78094B013A53F822309847074A084BA5
:107EAC00116889B21980198809B20029C2DB10BD8A
:107EBC00540400207C00002060000020445C004042
:107ECC001404002038B5B4E047F6FF71196013882C
:107EDC005D4903F00F030B70002B7ED15B4C5C4BA8
:107EEC00216801F440511980216801F0300159805A
:107EFC0021684BF68F7301EA030383F4005323606C
:107F0C00216848F6BF7301EA030383F02003236062
:107F1C00138813F0100F12D1226848F60F7302EA7F
:107F2C0003032360FFF76EFD236813F4084F2CD076
:107F3C00226840F68F7302EA0303236016E025687B
:107F4C00ADB215F0800F07D0226848F60F7302EA25
:107F5C0003032360FFF756FD15F4006F09D03B4A6D
:107F6C0040F68F73116801EA03031360FFF7E4FD19
:107F7C000BE015F4004F08D0344A40F68F731168AB
:107F8C0001EA03031360FFF797FC304B1A684BF6BA
:107F9C008F7302EA03032E4A128812F4805F18BF13
:107FAC0083F4805312F4005F284A18BF83F4005303
:107FBC001360126848F6BF7302EA0303244A52881E
:107FCC0012F0100F18BF83F0100312F0200F1F4A8D
:107FDC0018BF83F0200313602BE09B0003F1804358
:107FEC0003F5B8431C68A4B214F4004F0BD0186806
:107FFC0040F68F7200EA02021A600A78154B013AB9
:10800C0053F82230984714F0800F12D00E4948F6DE
:10801C000F720B789B0003F1804303F5B84318688B
:10802C0000EA02021A600A780B4B013A53F822302C
:10803C0098470A4B0A4A196889B21180118809B20B
:10804C000029FFF641AF38BD54040020005C00400D
:10805C005C0400207C00002060000020445C004098
:10806C001404002001F10051013201F5405110B50A
:10807C0049005208002309E0C41810F803C06478C2
:10808C00013A4CEA042C21F813C00233002AF3D134
:10809C0010BD01F10051013201F540514900520867
:1080AC00002305E031F813C0013A20F803C0023375
:1080BC00002AF7D170470000014B1860704700BFD1
:1080CC00405C0040014B186880B27047405C004037
:1080DC00014B1860704700BF445C0040014B1868AE
:1080EC0080B27047445C0040014B186880B2704706
:1080FC00485C0040014B1860704700BF4C5C00406E
:10810C00014B186880B270474C5C00404FF6F87316
:10811C00024A00EA03031360704700BF505C004042
:10812C00014B186880B27047505C0040800000F131
:10813C00804000F5B84001607047800000F180403D
:10814C0000F5B840006880B27047800000F18040B4
:10815C0000F5B840026848F68F1302EA03030B439C
:10816C0003607047800000F1804000F5B840006863
:10817C0000F4C0607047800000F1804000F5B8400A
:10818C00026848F6BF7302EA030311F0100F18BF20
:10819C0083F0100311F0200F18BF83F0200303604D
:1081AC007047800000F1804000F5B84002684BF643
:1081BC008F7302EA030311F4805F18BF83F48053BA
:1081CC0011F4005F18BF83F400530360704738B597
:1081DC000D460446FFF7B1FF012D08D1A40004F1B0
:1081EC00804404F5B84420F48050206038BD022D42
:1081FC0007D1A40004F1804404F5B84420F0100029
:10820C00206038BD800000F1804000F5B840006867
:10821C0000F030007047800000F1804000F5B8405D
:10822C00006800F440507047800000F1804000F579
:10823C00B840026848F6BF7302EA030383F03003C8
:10824C0003607047800000F1804000F5B840026880
:10825C004BF68F7302EA030383F4405303607047B9
:10826C00800000F1804000F5B840026848F68F634A
:10827C0002EA030343F4807303607047800000F14B
:10828C00804000F5B840026848F68F6302EA0303A9
:10829C0003607047800000F1804000F5B840026830
:1082AC0048F68F6302EA030303607047800000F115
:1082BC00804000F5B840026848F68F6302EA030379
:1082CC0043F4807303607047800000F1804000F538
:1082DC00B840026848F68F6302EA030343F48073E4
:1082EC0003607047800000F1804000F5B8400268E0
:1082FC0048F68F6302EA030303607047800000F1C5
:10830C00804000F5B840006800F03000102814BF21
:10831C00002001207047800000F1804000F5B8403B
:10832C00006800F44050B0F5805F14BF00200120BD
:10833C007047800000F1804000F5B840026840F6BC
:10834C008F7302EA030303607047800000F18040E2
:10835C0000F5B840026848F60F7302EA03030360A5
:10836C007047800000F1804000F5B840026848F684
:10837C008F7302EA030343F4804303607047800069
:10838C0000F1804000F5B840026848F68F7302EAAD
:10839C00030343F0400303607047800000F180400A
:1083AC0000F5B840036813F4804F07D0026848F614
:1083BC008F7302EA030343F4804303607047800029
:1083CC0000F1804000F5B840036813F0400F07D06F
:1083DC00026848F68F7302EA030343F0400303601C
:1083EC007047800000F1804000F5B840026848F604
:1083FC008F7302EA03030B4303607047800000F1A4
:10840C00804000F5B840006800F00F007047084B42
:10841C004FF6FE721B6801EA02029BB203EBC0032B
:10842C0003F1005303F540535B001A60704700BF23
:10843C00505C0040064B074A1B689BB203EBC00321
:10844C009A184FF6FE73520001EA0303136070474B
:10845C00505C004004300020054B1B689BB203EBC2
:10846C00C00303F1005303F540535B0018887047B9
:10847C00505C0040044B054A1B689BB203EBC003E5
:10848C009A18520010887047505C0040043000204D
:10849C00044B054A1B689BB203EBC0039A185200AD
:1084AC0011607047505C0040023000203E2909D911
:1084BC004B0911F01F0F01D1013B9BB29B0243F4FE
:1084CC00004305E04B0811F0010F18BF01339B026C
:1084DC00036070470D4B1A680D4B92B2D31803EB27
:1084EC00C0035B003E2909D94A0911F01F0F01D1C5
:1084FC00013A92B2920242F4004205E04A0811F0AD
:10850C00010F18BF013292021A607047505C004094
:10851C0006300020054B064A1B689BB203EBC003D8
:10852C009A18520010688005800D7047505C00400E
:10853C0002300020054B064A1B689BB203EBC003BC
:10854C009A18520010688005800D7047505C0040EE
:10855C00063000200D4B30B51C681B68C000A4B25F
:10856C0004199BB2C01804F10054094B04F5405493
:10857C006500C3184FF6FE7401EA040459004FF667
:10858C00FE7302EA03032C600B6030BD505C0040AC
:10859C0004300020074B4FF6FE721B6801EA020202
:1085AC009BB203EBC00303F1005303F540535B0094
:1085BC001A607047505C0040064B074A1B689BB220
:1085CC0003EBC0039A184FF6FE73520001EA030343
:1085DC0013607047505C004004300020054B1B6852
:1085EC009BB203EBC00303F1005303F540535B0054
:1085FC0018887047505C0040044B054A1B689BB2BE
:10860C0003EBC0039A18520010887047505C00406E
:10861C0004300020012924D1254B26491B68C000B9
:10862C009BB2591809184B003E2A09D9510912F06E
:10863C001F0F01D1013989B2890241F4004105E0D3
:10864C00510812F0010F18BF013189021960184B43
:10865C001968194B89B2CB18181840003E2A1FD93B
:10866C0013E0022923D11249C0000B681FFA83FCC6
:10867C00104B844463445B001A600B689BB2C018B7
:10868C000D4BC3185B001A607047530912F01F0F93
:10869C0001D1013B9BB29B0243F400430360704742
:1086AC00530812F0010F18BF01339B02036070478F
:1086BC00505C0040023000200630002001291BD104
:1086CC00134B1968134B89B2CB1803EBC000400055
:1086DC003E2A09D9530912F01F0F01D1013B9BB25D
:1086EC009B0243F4004305E0530812F0010F18BF3E
:1086FC0001339B0203607047022908D1044B1B68AD
:10870C009BB203EBC000034BC3185B001A607047AD
:10871C00505C00400230002001291BD1134B19681A
:10872C00134B89B2CB1803EBC00040003E2A09D989
:10873C00530912F01F0F01D1013B9BB29B0243F472
:10874C00004305E0530812F0010F18BF01339B02E0
:10875C0003607047022908D1044B1B689BB203EBE2
:10876C00C000034BC3185B001A607047505C00409C
:10877C0006300020054B064A1B689BB203EBC00376
:10878C009A18520010688005800D7047505C0040AC
:10879C0002300020054B064A1B689BB203EBC0035A
:1087AC009A18520010688005800D7047505C00408C
:1087BC00063000200D4BC0001A680D4992B2821889
:1087CC00511849000A8812F47C4F01D001207047DF
:1087DC001B689BB2C018074BC3185B001888800538
:1087EC00800D002814BF022000207047505C004010
:1087FC00063000200230002001290DD1800000F14C
:10880C00804000F5B840026848F68F7302EA030313
:10881C0043F040030360704702290CD1800000F143
:10882C00804000F5B840026848F68F7302EA0303F3
:10883C0043F480430360704741EA00207047C3B2A1
:10884C00000A40EA03207047032A2DE9F0070BD8F1
:10885C003AB1002311F803C000F803C0013393426E
:10886C00F8D1BDE8F007704782180C46034603E0C8
:10887C0014F8011C03F8011C03F003061946A44666
:10888C0001330134002EF3D11CF00304634608BFFE
:10889C00C1EB020C68D06542C4F1040A0CEB05076D
:1088AC0033464FEACA0A5CF805604FEAC408551A09
:1088BC0008E057F8044F264604FA0AF449EA04047F
:1088CC00CC5004335C18032D26FA08F9A5F10405E5
:1088DC000CEB0306EDDC002302E0F15CE154013308
:1088EC0019199142F9D3BCE753F8404C41F8404C6C
:1088FC0053F83C4C41F83C4C53F8384C41F8384C4C
:10890C0053F8344C41F8344C53F8304C41F8304C5B
:10891C0053F82C4C41F82C4C53F8284C41F8284C6B
:10892C0053F8244C41F8244C53F8204C41F8204C7B
:10893C0053F81C4C41F81C4C53F8184C41F8184C8B
:10894C0053F8144C41F8144C53F8104C41F8104C9B
:10895C0053F80C4C41F80C4C53F8084C41F8084CAB
:10896C0053F8044C41F8044C1C460D46403340313E
:10897C00BCF13F0FACF1400CB6DC21462B46541B2E
:10898C000FE051F8105C43F8105C51F80C5C43F8A4
:10899C000C5C51F8085C43F8085C51F8045C43F833
:1089AC00045C0F2C0D469C4601F1100103F11003E1
:1089BC00A4F11004E5DCCCEB0201002303E0EC583D
:1089CC004CF8034004335E19032903EB0C04A1F1AA
:1089DC000401F4DC7FE700BF80EA0102844612F058
:1089EC00030F4FD111F0030F32D14DF8044D11F09C
:1089FC00040F51F8043B0BD0A3F101329A4312F04F
:108A0C00803F04BF4CF8043B51F8043B16D100BF27
:108A1C0051F8044BA3F101329A4312F0803FA4F1B8
:108A2C0001320BD14CF8043BA24312F0803F04BF3F
:108A3C0051F8043B4CF8044BEAD023460CF8013BAC
:108A4C0013F0FF0F4FEA3323F8D15DF8044B704756
:108A5C0011F0010F06D011F8012B0CF8012B002A94
:108A6C0008BF704711F0020FBFD031F8022B12F083
:108A7C00FF0F16BF2CF8022B8CF8002012F47F4F3E
:108A8C00B3D1704711F8012B0CF8012B002AF9D146
:108A9C00704700BF002103E0094B5B584350043181
:108AAC000848094B42189A42F6D3084A02E00023C0
:108ABC0042F8043B064B9A42F9D3FBF799FE7047F8
:108ACC00A0940008000000202C0100202C010020A4
:108ADC0060040020FEE70000749300088A930008ED
:108AEC009E930008BA930008F893000814940008A9
:108AFC002F9400084794000800000000C0E0F0F834
:108B0C00FCF0E000000000000000000080E0F8F83D
:108B1C00F0F0E0C080000000E0FCFEFFFFFFFFFF74
:108B2C00FFFFFF7F3C1080C0C0C0881E7FFFFFFF8F
:108B3C00FFFFFFFFFFFEFCF001010101010101013C
:108B4C000101010000C0F1F3E3F3F1E0C00000000B
:108B5C000000000000000000000000000000000009
:108B6C000030387C7F7FFFFFFFFFFFFF7F7F3E1CC5
:108B7C0008000000000000006694000800C0000817
:108B8C0000000000000000000000000000000000D9
:108B9C0000000000000000000000000000000000C9
:108BAC000100000001000000030000000F000000A5
:108BBC003F0000003F0000007F0000007F0000002D
:108BCC00470000008F00000067010000CF0200008A
:108BDC009F0500000F0E00001F1C00003F38000016
:108BEC004F4600009F8C00004F460000E3570000EA
:108BFC00F12B0000E3570000DC6D0000B9DB000036
:108C0C000B000B000B000B000B000F000F000F00F4
:108C1C000F000F000F001F003F003F007F00FF0000
:108C2C00FF00FF00FF01FF01FF01FF03060006002C
:108C3C000600060006000800110023005900B300CE
:108C4C006701C101C101830364046404C908F815F8
:108C5C00F815F12BDC6DDC6D14002A006800CF00D8
:108C6C0037008A0013013500840009012A006900CD
:108C7C00D40039008E001C013B009200260100003C
:108C8C0071031F033602B400EE02B701B5FFF60202
:108C9C00CD01DBFF1F033302A100E702A80193FF04
:108CAC00DF0299016EFFBC03F8FFF07FE03FC01FAD
:108CBC00800F000700020000F07FF07F0000000032
:108CCC000000F07FF07F000000000000000000E0DA
:108CDC000010000800080008300C600CC000800177
:108CEC0000033006300C000000080008001000E003
:108CFC0000000000000000001020102010201020A8
:108D0C0010201020F03F000000000000C00FE01FFA
:108D1C003030102000000000000000001020303027
:108D2C00E01FC00F000000000000C018800D0007FD
:108D3C000007800DC0180000000000010001C007F2
:108D4C00C007000100010000000000000000FCFF53
:108D5C000000000000000000000000010001000104
:108D6C0000010001000100000000000000003000C4
:108D7C00300000000000000030006000C0008001E6
:108D8C0000030006000C0000E01FF03F90201023B1
:108D9C001024F03FE01F0000000010081018F03FF6
:108DAC00F03F1000100000007010F03090211023E4
:108DBC0010263038301800002010303010221022CD
:108DCC001022F03FE01D000000030007000D1019F9
:108DDC00F03FF03F10010000203E303E10221022E8
:108DEC001023F023E0210000E00FF01F10321022BE
:108DFC001022F003E001000000300030F020F021E0
:108E0C000023003E003C0000E01DF03F1022102229
:108E1C001022F03FE01D0000001C103E102210221A
:108E2C003022E03FC01F0000000000000000600C7A
:108E3C00600C0000000000004000400040004000BA
:108E4C004000400040004000000000018003C006CC
:108E5C00600C30181010000040024002400240022A
:108E6C004002400240020000000010103018600C5C
:108E7C00C006800300010000001800380020B02359
:108E8C00B027003C00180000C00F20109027902441
:108E9C00D0275010800F0000F007F00F00190031A0
:108EAC000019F00FF00700001020F03FF03F1022E7
:108EBC001022F03FE01D0000C00FE01F30301020EA
:108ECC0010203030601800001020F03FF03F1020D0
:108EDC003030E01FC00F00001020F03FF03F102298
:108EEC0010273030703800001020F03FF03F102277
:108EFC000027003000380000C00FE01F3030102178
:108F0C001021E031F0190000F03FF03F00020002A8
:108F1C000002F03FF03F0000000000001020F03F86
:108F2C00F03F102000000000E000F00010001020C6
:108F3C00F03FE03F002000001020F03FF03F000326
:108F4C00000FF03C703000001020F03FF03F10207C
:108F5C001000300030000000F03FF03F001C000E0D
:108F6C00001CF03FF03F0000F03FF03F001C000EF3
:108F7C000007F03FF03F0000C00FE01F3030102022
:108F8C003030E01FC00F00001020F03FF03F1022E7
:108F9C000022003E001C0000E01FF03F102070205B
:108FAC003020F83FE81F00001020F03FF03F002277
:108FBC000023F03FF01C00006018703C10261022BB
:108FCC001023F039E0180000000000381030F03F9A
:108FDC00F03F103000380000E03FF03F1000100070
:108FEC001000F03FE03F0000803FC03F60003000C9
:108FFC006000C03F803F0000C03FF03F7000C001E8
:10900C007000F03FC03F00003030F03CC00F000358
:10901C00C00FF03C303000000000003C103EF0036C
:10902C00F003103E003C00007038F030902110230B
:10903C001026303C703800001000300050009001B9
:10904C001003100CF03F0000000800080008000896
:10905C0000080008000800080000000000007CFC6C
:10906C00800280020001000100020004000CF01FCD
:10907C00F03F000C0004000200018000C000E03F43
:10908C00F03FC000800000011020102010201020A4
:10909C001020102010201020E000F0051005100505
:1090AC00E007F003100000001020F03FE03F10023A
:1090BC001002F003E0010000E003F00710041004BC
:1090CC001004300620020000E001F003100610240A
:1090DC00F03FF03F10000000E003F0071005100512
:1090EC00100530072003000000001002F01FF03FB5
:1090FC001022003000180000C803EC0724042404DC
:10910C00FC03F807000400001020F03FF03F2002A1
:10911C000004F007F0030000000000001004F0371A
:10912C00F037100000000000000018001C000404C0
:10913C00FC37F837000400001020F03FF03F80218E
:10914C00C003700630040000000000001020F03F47
:10915C00F03F100000000000F007F0070006F003DD
:10916C000006F007F00700000004F007F00300040D
:10917C000004F007F0030000E003F00710041004F3
:10918C001004F007E00300000404FC07FC03440493
:10919C004004C007800300008003C007400444045F
:1091AC00FC07FC03040400001004F007F003100695
:1091BC0000040006000300000000200230079005A8
:1091CC009004F0066002000000040004E01FF03F71
:1091DC001004300420000000E007F007100010001D
:1091EC00E007F007100000000000C007E0073000A7
:1091FC003000E007C0070000E007F0073000E00097
:10920C003000F007E007000010043006E003C00156
:10921C00E0033006100400008007C407440044003B
:10922C004400F807F007000030067006D0049005E3
:10923C00100730063004000080078004F03C10203A
:10924C00D02FD02FD02FD02FD02FD02FD02FD02F1A
:10925C00D02FD02FD02FD02FD02FD02FD02FD02F0A
:10926C00D02F1020F03F000080078004F03C10202D
:10927C001020102010201020000000000000000022
:10928C0000000000000000000000000000000000D2
:10929C00000000000000000093940008999400085E
:1092AC00120100020000004083042057000101025B
:1092BC0003010000090220000101008032090400B2
:1092CC000002080650040705810240000007050251
:1092DC0002400000040309042603530054004D000F
:1092EC006900630072006F0065006C00650063002C
:1092FC00740072006F006E00690063007300000060
:10930C002603530054004D003300320020004D0062
:10931C006100730073002000530074006F00720032
:10932C0061006700650000001A0330003000300057
:10933C0030003000300030003000300030003000A1
:10934C003100000010035300540020004D00610058
:10935C007300730000000000010203040102030407
:10936C000607080902040608557361676520466103
:10937C00756C7420457863657074696F6E00427506
:10938C0073204661756C7420457863657074696FE1
:10939C006E004D656D6F7279204D616E6167656D04
:1093AC00656E7420457863657074696F6E004861F2
:1093BC007264204661756C742045786365707469BD
:1093CC006F6E00446973636F6E6E656374205553E2
:1093DC0042206265666F7265007475726E696E67A5
:1093EC00206F6E206465766963652E002020202036
:1093FC0047616D6D612047726170686572205665BA
:10940C007273696F6E20320020202020204D756C05
:10941C0074696368616E6E656C20416E616C797AFB
:10942C0065720020202020202020204279205468C2
:10943C006520474345205465616D0020204C49420E
:10944C00205265766973696F6E20302E3131202879
:10945C00323031322F392F3729004572726F723A00
:10946C00204E6F206170706C69636174696F6E203F
:10947C00666F756E640030313233343536373839B7
:10948C004142434445460054525545200046414C08
:04949C005345000034
:1094A0000A00F00082940008E000000001010000C2
:1094B0000080020220000000474345202020202099
:1094C00047616D6D6120477261706865722032205E
:1094D000302E3131030000000006000000000000C3
:1094E000700000000000000A000000000000000002
:1094F0000000000000000008000000000200000062
:10950000F5610008817800088178000881780008FA
:109510008178000881780008817800088178000847
:10952000F1610008817800088178000881780008DE
:109530008178000881780008E092000804000000AB
:10954000E4920008260000000C93000826000000AA
:10955000349300081A000000509300081000000027
:10956000C092000820000000AC9200081200000029
:10957000B1620008A96300084D6200084F6200084C
:10958000756200083563000851620008296300080D
:109590001D63000805630008000000004000000093
:1095A00003010000817800088163000881780008C9
:1095B00081780008817800087564000881780008C7
:0C95C0008178000881780008010000009C
:0400000508008AA1C4
:00000001FF
