:020000040800F2
:10C00000005000205901010885C8000895CA0008A1
:10C0100079CA00085DCA000841CA00080000000093
:10C0200000000000000000000000000089C80008B7
:10C0300087C80008000000008BC800088DC80008F1
:10C040008FC8000891C8000893C8000895C8000868
:10C0500097C8000899C800089BC800089DC8000838
:10C060009FC80008A1C80008A3C80008A5C8000808
:10C07000EDC80008EFC80008F1C80008F3C80008C0
:10C08000F5C80008F7C80008F9C80008B5CA0008D4
:10C09000B1CA0008FBC80008FDC80008FFC80008B6
:10C0A00001C9000803C9000805C9000807C900083C
:10C0B00009C9000825C900080BC900080DC90008F6
:10C0C0000FC9000811C9000813C9000815C90008E4
:10C0D00017C9000819C900081BC900081DC90008B4
:10C0E0001FC9000821C9000823C90008000000007A
:10C0F0000000000000000000000000000000000040
:0CC1000000000000000000005FF808F1E3
:10C10C000000000000000000000000000000000023
:10C11C000000000000000000000000000000000013
:10C12C000000000000000000000000000000000003
:10C13C0000000000000000000000000000000000F3
:04C7FC000000000039
:10C8000030BF704720BF704740BF7047BFF36F8F86
:10C810007047BFF34F8F7047BFF35F8F704701DFE3
:10C820007047EFF31480704780F31488BFF36F8F65
:10C830007047EFF30980704780F309887047EFF382
:10C840000880704780F30888704772B6704762B6F8
:10C85000704771B6704761B6704780F311887047B2
:10C86000EFF31280704740BA704700BA70474C141B
:10C870000108001800203818002038180020B04D9A
:10C88000002000007047704770477047704770473E
:10C8900070477047704770477047704770477047E0
:10C8A0007047704710B50D4B0D4900201A7808608D
:10C8B0000C48022404600C4CD2F1010238BF002263
:10C8C00004EBC2241030046008384FF48064046024
:10C8D00043F2835008601A7010BD00BF3C4B00202B
:10C8E0000800024004000240343B002070477047BB
:10C8F0007047704770477047704770477047704780
:10C90000704770477047704770477047704770476F
:10C91000704770477047704770477047704770475F
:10C92000704770473C4B37B500221A603B4B1A6882
:10C9300001321A603A4B1A8812B2002A03DB1A88B5
:10C94000013A92B21A80374B1A8812B2002A03DBDE
:10C950001A88013A92B21A80334B1A8812B2002A0E
:10C9600003DB1A88013A92B21A802E4B1A88B2B9A8
:10C970004FF00A021A8000F067FB01280FD02B4B02
:10C980009B79012B06D002D3022B08D105E000F0E1
:10C99000D7F804E000F090F801E001F07FFE224BB0
:10C9A0001B8823B9224B1A6822F001021A601C4B23
:10C9B0001A88002A2ED11D4C4FF47A7162894A439D
:10C9C00092B21A8000F024FBA37913B1012B05D198
:10C9D00002E002F091FA01E002F09AF9154B1B789F
:10C9E0000BB902F059F800F0E3FA134C08B1002338
:10C9F0000FE0257875B900F0A3FD48B10F4B28462C
:10CA00009B68294600931F222B46F7F790FB01E015
:10CA1000012323703EBD00BF10040040384B0020AE
:10CA2000484B00204A4B0020344B0020C83A0020DD
:10CA3000000800403C1800207C4D00200C1800200D
:10CA400007B5054B64201B68142100931F220023A7
:10CA5000F7F76DFBFEE700BF9C01010807B5054B2A
:10CA600064205B68142100931F220023F7F75FFB0B
:10CA7000FEE700BF9C01010807B5054B64209B68D9
:10CA8000142100931F220023F7F751FBFEE700BF9C
:10CA90009C01010807B5054B6420DB681421009355
:10CAA0001F220023F7F743FBFEE700BF9C010108AC
:10CAB000F7F72EBBF7F72EBB38B5002104461D480B
:10CAC00000F021FC1C4B023C1B68B3F86250062CA2
:10CAD0002BD8DFE804F004122A2A2A231A00174A66
:10CAE0001378D3F1010338BF0023137013B100F0A2
:10CAF000DBF91AE000F0E2F917E09A799888DA7128
:10CB000002229A7101F06CFD0FE002359B8AADB2F2
:10CB100029B21AB2914206DB5D1E03E0023D2DB23E
:10CB200025EAE575ADB202F0F3F8034B1B68A3F8F4
:10CB3000625038BDB7060108001800203C180020DC
:10CB40002DE9F04700210446584800F0DCFB584B23
:10CB50001B6893F84410DA8F0729B3F84660B3F8DE
:10CB60004880B3F84050B3F842708A4601DD012096
:10CB700009E00FFA85FC38B2BCEB000048BF3F303B
:10CB80008011B94680B2023C062C00F28180DFE8B9
:10CB900004F004127F1A28644B00464A1378D3F13C
:10CBA000010338BF0023137013B100F07DF96FE06B
:10CBB00000F084F96CE09A799888DA7102229A710F
:10CBC00001F00EFD64E0B3F914304FF4006090FB07
:10CBD000F3F399425CDA4FEA410A13B293FBFAF598
:10CBE0000DE0012954D94FEA510A0FFA8AF5012DB7
:10CBF00002DC95B200274BE013B293FBF5F5AFB220
:10CC000005EBD57506EB6505ADB229B2994201DD9C
:10CC1000551EADB23FB207EBD777A8EB67073FB21F
:10CC200027EAE777BFB231E0B1B20E18B6B230B240
:10CC300013B2984201DB561EB6B230B22AB290420D
:10CC4000B3B203DDEF1BDF1BBFB21D46C8EB01080B
:10CC5000C8EB03081FFA88F818E01FFA88F2C0EB47
:10CC600002080FFA88F828EAE8781FFA88F80FFA1D
:10CC700088F039B288421FFA88F3B94603DAED1B0F
:10CC80005D19ADB21F46B61A9E19B6B202F034F95C
:10CC9000074B1B68A3F84660A3F84880A3F84050F0
:10CCA000A3F8427083F844A0BDE8F087C4060108E9
:10CCB000001800203C18002010B50021064800F0A4
:10CCC00022FB064B00221A7001F038FF02F0EAF94D
:10CCD000BDE8104000F0F2B8D00601083C18002072
:10CCE00013B5464C0021464800F00DFB4FF00060A4
:10CCF0004FF4404102F046FD00F01CFA236800208A
:10CD0000702100934FF6FF720346F7F710FA63683D
:10CD10000020602100934FF6FF720346F7F707FAF1
:10CD2000A368002050211F2200930346F7F7FFF964
:10CD3000E36800201F22402100930346F7F7F7F92C
:10CD400001F0DAFB2F4B1B681A682F4B9A4201D077
:10CD500001F058FB2B4C002000F092F82368586B30
:10CD600000F05AF82368587B00F0F4F94FF47A6029
:10CD700000F028F9002000F00BFA2368DA79012A84
:10CD80009A7108D002D3022A0DD109E002F090F87E
:10CD900002F0B2F807E002F071F801F0B9FF02E02A
:10CDA000988801F01DFC00F003F9044670B900F00A
:10CDB000C7FB58B100F0C4FB40B1144B20469B6840
:10CDC000214600931F222346F7F7B1F90A204FF4BA
:10CDD000FA7100F0C1F80E4B4FF00A021A80094BAD
:10CDE0004FF47A721B685B895A430A4B92B21A80DD
:10CDF00002B0BDE8104001F05FBD00BFAC0101080A
:10CE0000DF06010800180020150912000C18002088
:10CE10004A4B0020484B002020B9154B01221A60D4
:10CE2000144A06E0B0F5FA7F09DC134B01221A60C0
:10CE3000124A2021116010391160022215E0B0F56C
:10CE40007A6F07DC0C4B01221A600C4B1F321A6000
:10CE5000103A07E0084B01221A60064B1F321A6095
:10CE6000103A043B1A60024B0E3A1A60704700BF3A
:10CE7000140C014014100140100C0140101001402E
:10CE8000074B084A33F8101003EB40039B8D1160E9
:10CE90000432136001335B1008321360704700BF27
:10CEA000BC010108282C0140024A00231360024AF9
:10CEB0001370704708000240303B002008B5FFF7B0
:10CEC000F3FF074A074B1A60074A04331A604FF40E
:10CED0008062083B1A6043F28352043B1A6008BD2B
:10CEE0004C24014010000240343B002010B5FFF7F5
:10CEF000DBFF174B1A6842F001021A60154A1168ED
:10CF000041F0010111601A6842F008021A60104BEA
:10CF10001B6813F0080FFAD10E4B1A6842F0080292
:10CF20001A600C4B1B6813F0080FFAD1084B1A68F3
:10CF300042F004021A60064B1B6813F0040FFAD18A
:10CF4000044B1A6842F004021A60BDE81040B5E7CD
:10CF500008240140082801400B4B0C4A03EB8003D6
:10CF6000986DD3F8983010600432136001335B0879
:10CF700008321360064B1A6842F001021A60054B32
:10CF800023F8F41C704700BFBC01010828080040CA
:10CF900000080040284C0020044B186800F4806012
:10CFA00000280CBFFF200020704700BF080C014084
:10CFB000034B186810F4806018BFFF20704700BF53
:10CFC00008140140044B53F8F03CC318024A52F8CD
:10CFD000F02C9A42FAD37047284C002070470A4A36
:10CFE0000A4912F8EC3C0968581C12F8EC2C800233
:10CFF000401A934280B2F2D1B0F5006F24BFA0F581
:10D00000006080B2704700BF284C00200C00024036
:10D010000A4B1A880A4B92B202F5C03202F56072CE
:10D0200043F8E82C074A126812F4806F01D00422FA
:10D0300000E0032203F8E42C704700BF4E240140B7
:10D04000284C0020080C0140364B37495B7B374A9F
:10D05000012B0B681CD113F4006F38D0344B1868C7
:10D0600010F0080F31D0186810F0100F31D0186888
:10D0700010F0400F35D0096811F4007F2FD01968E7
:10D0800011F0200F27D01B6813F0800F25D045E04A
:10D0900013F4006F1BD0264B186810F0080F14D043
:10D0A000186810F0100F14D0186810F0400F12D04C
:10D0B000096811F4007F10D0196811F0200F0ED00C
:10D0C0001B6813F0800F0CD028E004200AE0032036
:10D0D00008E0022006E0052004E0062002E0072028
:10D0E00000E0082012F8E32C104B824206D04FF0EB
:10D0F000280223F8E22C03F8E30C704733F8E22C03
:10D10000013A92B223F8E22C12B2002A01DD01208A
:10D1100070474FF0140223F8E22C7047012002F808
:10D12000E30C7047C83A002008140140284C002046
:10D130000808014007B50B238DF8043001A80A3B0D
:10D140008DF805308DF806308DF8073002F080FA42
:10D150000EBD00BF10B50D4C23685873F6F7EFFFF6
:10D1600023685A7B012A05D14FF0F0021A824FF44E
:10D17000A07204E04FF4A0721A824FF0EF025A82BC
:10D180001A8A9A825A8A203ADA8210BD0018002040
:10D1900007B5054B1B681A8A5B8A00900020014680
:10D1A000F6F7C9FF0EBD00BF001800201FB59DF89F
:10D1B00018C003AC8DF80CC04FF0000C8DF80DC0FA
:10D1C0000094F6F7B4FF1FBD2DE9F04186B003AF20
:10D1D00006460D4614469846384605219DF83020EF
:10D1E00001F006F930462946224643460097F6F7F5
:10D1F0009EFF06B0BDE8F0812DE9F04186B003AF97
:10D2000006460D46144698460A210C9A384601F007
:10D2100049F830462946224643460097F6F787FFED
:10D2200006B0BDE8F0812DE9F04186B002AF0646B8
:10D230000D46144698460D210C9A384601F006F822
:10D2400030462946224643460097F6F770FF06B05F
:10D25000BDE8F0812DE9FF4102AF06460D461446B8
:10D2600098460621BDF92820384600F0EFFF3046E9
:10D270002946224643460097F6F759FFBDE8FF814D
:10D280002DE9FF4102AF06460D461446984604219B
:10D290009DF92820384600F0D9FF3046294622461D
:10D2A00043460097F6F743FFBDE8FF812DE9F041C3
:10D2B00086B002AF06460D46144698460D210C9ADC
:10D2C000384600F0A3FF30462946224643460097E1
:10D2D000F6F72DFF06B0BDE8F0812DE9FF4102AF62
:10D2E00006460D46144698460621BDF828203846C5
:10D2F00000F08CFF30462946224643460097F6F759
:10D3000016FFBDE8FF81284BF0B51B6887B0B3F965
:10D3100064200446002A0E4643DD244F00251A8A65
:10D320003988284610230095F6F705FF204A3988EA
:10D330001388581C1080009328464FF6FF722B4626
:10D34000FFF7CBFF9CB1254600E001352B78002B81
:10D35000FBD1164A402011884FF6FF720094F6F771
:10D36000E6FEC4F101046419E4004034A4B20F4D98
:10D3700003AF08213246384600F02CFF00232988ED
:10D3800020464FF6FF728DF814300097F6F7CFFE67
:10D390002B88103B9BB213F4004F2B801CBFE02363
:10D3A0002B8007B0F0BD00BF001800200818002037
:10D3B000504B00202DE9FF4103AF06460D461446B1
:10D3C000984603219DF82820384600F01FFF30467C
:10D3D0002946224643460097F6F7A9FEBDE8FF819D
:10D3E0009142F8B506460C4615461F460AD906E096
:10D3F000294630463A46F6F796FE0135ADB2A542CB
:10D40000F6D9F8BD2146013430463A46A4B2F6F7C3
:10D410008AFEAC42F6D9F8BD70B50D4606461446F4
:10D42000F6F781FE691C3046224689B2F6F77BFE8C
:10D43000691E3046224689B2F6F775FE701C2946F1
:10D44000224680B2F6F76FFE701E80B22946224651
:10D45000BDE87040F6F767BE38B500213248FFF7E7
:10D4600052FF324B19791A6819B19D6802EB4505D4
:10D4700002E09D6802EB85052C4C25F4FE7104F159
:10D480000C0021F003014FF40072F6F747FE00286C
:10D4900047D1ED052379ED0D2D19ABB16A7B2B7BBF
:10D4A00003EB02234FF6EF7293423AD8B4F810120E
:10D4B000D4F81422B4F81A0202EB4122B4F818127C
:10D4C000A3604143023B17E06A7BAB7B120202EB95
:10D4D0000342297BEB7B521803F00F0302EB03633B
:10D4E000134A93421DD8B4F81822B4F81A12A36054
:10D4F0005143D4F81422023B03FB0123C4F80C323D
:10D500000A4C0C48D4F80C12FFF7FDFE0A48D4F878
:10D510001412FFF7F8FE0948A168FFF7F4FE002097
:10D5200038BDFF2038BD00BF4C070108544B002018
:10D53000EFFFFF0F58070108700701088607010871
:10D5400070B5584C58480021FFF7DDFE04F10C007F
:10D5500000214FF40072F6F7E1FD10B153480021AD
:10D5600018E094F8D45194F8D5312D0405EB0365F7
:10D5700094F8D23104F10C00ED1894F8D3314FF443
:10D58000007205EB03256D022946F6F7C7FD28B1A9
:10D5900047482946FFF7B7FEFF2070BDE37D227E96
:10D5A00094F81EE0607F03EB022294F819C000EBB0
:10D5B0000E2092B280B2A4F81822A4F81AC2E17E1A
:10D5C000A37E40B14FF0010E84F804E094F823608C
:10D5D00094F822E004E094F8316094F830E020718F
:10D5E00003EB01212F4B89B201FB02511D7F0EEB92
:10D5F000062E55431FFA8EFE0EFB0515196019798C
:10D60000C3F8145219B10009A3F8100216E093F8F8
:10D610003A0093F83BE0000400EB0E6093F838E02A
:10D620000CFB02F2704493F839E000EB0E20C3F8D3
:10D630002002023800FB0255C3F82452194CC3F8EB
:10D640001C521C48FFF75FFE1B48B4F81812FFF786
:10D650005AFE1A48B4F81A12FFF755FE1848216806
:10D66000FFF751FE1748D4F81412FFF74CFE164886
:10D67000B4F81012FFF747FE1448D4F82412FFF74D
:10D6800042FE1348D4F82012FFF73DFE114B1B68F1
:10D69000B3F96430032B00DDFEE7012384F8283260
:10D6A000002070BD544B00209D070108A807010809
:10D6B000C9070108E8070108F90701080F08010870
:10D6C00025080108390801084E0801086308010807
:10D6D000780801080018002038B5294C2948D4F8EA
:10D6E0001C12FFF710FED4F80C1204F10C0021F408
:10D6F000FE7121F003014FF40072F6F70DFD18B131
:10D700002148D4F80C122DE0D4F81C5204F10C007E
:10D7100025F4FE7525F0030529464FF40072F6F74F
:10D72000FDFC08B119481BE0D4F81C32D4F82C22B7
:10D73000DB05DB0D1B19110E83F82B10110C83F880
:10D740002A10110A83F8291083F82820294604F1A9
:10D750000C004FF40072F6F7DFFC054630B10C48C0
:10D76000D4F81C12FFF7CFFDFF2038BD0948D4F8CC
:10D770002C12FFF7C8FDC4F82C52284638BD00BF54
:10D78000544B00208F0801089E080108BD080108BD
:10D79000DC080108FB08010810B5134C13480021F0
:10D7A000FFF7B1FDD4F81C1204F10C0021F4FE7156
:10D7B00021F003014FF40072F6F7B0FC08B1FF202E
:10D7C00010BDD4F81C1204F10C00CB05DB0D163390
:10D7D0001B191A7B490A01321A734FF40072BDE813
:10D7E0001040F6F799BC00BF544B00200D0901080A
:10D7F0002DE9F04759480021FFF785FD584B1A796C
:10D8000012B11F68043701E01F680837544C554EA9
:10D8100055482168FFF777FD07EA060653480221BD
:10D82000FD05FFF770FDED0D51483146FFF76BFD2B
:10D8300050482946FFF767FD04F10C0031464FF4CC
:10D840000072F6F76BFC002840F0848094F804C066
:10D85000032707F1FF38424C6A1CBCF1000F25D0AA
:10D8600012192B19107B197B01EB0021E1B9013949
:10D8700011736FF007021A7304F10C0031464FF474
:10D880000072F6F749FC002864D1B4F81022D4F8ED
:10D890001432B4F81A1203EB4223B4F81822C4F875
:10D8A00008804A43033F38E002354DE0A91C1219B5
:10D8B000091992F80C9091F80CA04FEA09292B193C
:10D8C00009EB0A49E81C93F80CA00019D14490F820
:10D8D0000CA00AF00F0A09EB0A6ABAF1000F32D164
:10D8E0004FF0FF3C80F80CC081F80CC082F80CC0EF
:10D8F0006FF007021A7304F10C0031464FF4007206
:10D90000F6F70AFC30BBB4F81832B4F81A22C4F89F
:10D9100008805A43D4F81432033F07FB0237C4F897
:10D920000C720F4C1448D4F80C12FFF7ECFC13489F
:10D93000D4F81412FFF7E7FC0C48A168FFF7E3FCEA
:10D940000020BDE8F0870435ADB20137B5F5007FA2
:10D95000FFF47FAFFF20BDE8F08700BF1609010884
:10D96000544B002000FEFF0F210901083509010872
:10D970004B0901085B090108680901087F090108D2
:10D9800070B5234C23482168FFF7BDFC237923B1F0
:10D99000A268236803EB420303E0A268236803EB59
:10D9A00082031D4CDE0503EA04041C482146F60DE3
:10D9B000FFF7A9FC1A483146FFF7A5FCFFF718FF4F
:10D9C00028B118480021FFF79EFCFF2070BD104DC4
:10D9D000214605F10C004FF40072F6F79FFBA0B949
:10D9E0002B7976190BB1AB6804E0AB681A0EF273B1
:10D9F0001A0CB2731A0A727333730B4821464FF430
:10DA00000072F6F789FB00B970BDFF2070BD00BF42
:10DA1000544B00209409010800FEFF0FA8090108DB
:10DA2000B8090108C5090108604B0020424B2DE9E7
:10DA3000F0471B688146B3F964300F46012B00DDC7
:10DA4000FEE73E4DD5F80C62D5F8303226F4FE7470
:10DA500024F003049C420BD005F10C0021464FF446
:10DA60000072F6F75BFB08B135482AE0C5F8304292
:10DA7000F60534483946F60DFFF745FC4FF000082F
:10DA800055E02E4D19F808207319D5F82C120136DF
:10DA90001A73D5F80C32B6B201310133B6F5007FF6
:10DAA000C5F82C12C5F80C323DD12748FFF72BFCE6
:10DAB00005F10C0021463246F6F72EFB824628B1CE
:10DAC0002248D5F80C12FFF71EFC15E0324605F18E
:10DAD0000C00514602F0F4F9B5F83432B5F81A22C8
:10DAE00001339BB29A42A5F8343217D8FFF7B4FC41
:10DAF00028B1FFF745FF10B1FF20BDE8F0870F4BBD
:10DB00004FF00002D3F80C42A3F8342224F4FE7440
:10DB100024F00304C3F83042002604E004F5007446
:10DB2000C5F830425646013F08F10108BFB2002F48
:10DB3000A7D13846BDE8F08700180020544B0020DC
:10DB4000E0090108000A01080E0A0108240A010878
:10DB500010B5044602F07CFA81B22046BDE81040C0
:10DB600064E72DE9F7455D4C80460E465C48002190
:10DB7000FFF7C9FB94F8280218B95A4BDB680093E9
:10DB800006E0FFF735FE48B1564B00209B68009336
:10DB900001461F220346F6F7CAFA9CE0237913B127
:10DBA000D4F8144201E0D4F82442002789E04E481A
:10DBB0002146FFF7A8FB24F4FE7105F10C0021F0CB
:10DBC00003014FF40072F6F7A9FA824610B14748F4
:10DBD00021467EE02146464B0D1B1B1B5B5C53B16F
:10DBE000E52B08D00AF1200A1FFA8AFA2031BAF58B
:10DBF000007FF0D162E0394F0024C7F81C12C7F84B
:10DC00002C423C480C37FFF77EFB07EB0A0021460D
:10DC1000202202F055F97F1918F804300134082C3D
:10DC200007F8013BF8D12D4B317805F10802D218E5
:10DC300011737178ED185173B17891732022EA75E0
:10DC40000A32AA771732EA771A7932B1002285F8B8
:10DC5000202085F821209B6806E09B681A0E85F835
:10DC600021201A0C85F820201C4C1A0AD4F81C120A
:10DC700085F8272021F4FE7185F8263004F10C0088
:10DC800021F003014FF40072F6F746FA054618B189
:10DC90001948D4F81C121CE01848D4F81C12FFF7DD
:10DCA00032FB1748D4F80C12FFF72DFB1548A1687A
:10DCB000FFF729FBA4F8345228460DE00137BFB224
:10DCC0000C46064DB5F81A32BB423FF670AF0E480F
:10DCD0000021FFF718FBFF20BDE8FE85544B002014
:10DCE000440A01080C1800204A0A0108590A0108D0
:10DCF000604B0020740A01088C0A0108A80A010878
:10DD0000B50A0108C70A0108D80A01082DE9F34736
:10DD100080468A464E480021FFF7F5FA4D4B93F8AE
:10DD2000280240B94C4B0146DB681F220093034692
:10DD3000F6F7FDF988E01A7912B1D3F8144201E040
:10DD4000D3F82442002776E044482146FFF7DBFA67
:10DD500024F4FE7105F10C0021F003014FF4007270
:10DD6000F6F7DCF9064610B13D4821466AE00C356D
:10DD7000EB7A4FEA461913F04E0F55D1284641462B
:10DD8000082202F095F900284ED105F1080051460D
:10DD9000032202F08DF9002846D12E4A1579C2F8E7
:10DDA0002C02C2F81C4209EB0203B2F81812B2F8B6
:10DDB0001A028DB193F827C093F82630414303EB44
:10DDC0000C23D2F81452B2F810C2936005EB4C2C1D
:10DDD000023B03FB01C315E093F820C093F821E058
:10DDE0004FEA0C4C0CEB0E6C93F826E0414393F891
:10DDF0002730F4440CEB0323D2F814529360023B17
:10DE000003FB01532146134CC2F80C321548FFF7AF
:10DE10007AFA1548D4F80C12FFF775FA1348A1687E
:10DE2000FFF771FA002010E0013620342035102E63
:10DE30009ED10137BFB2074DB5F81A32BB4283D825
:10DE40000B480021FFF75FFAFF20BDE8FC8700BF09
:10DE5000ED0A0108544B00200C180020F40A0108B8
:10DE6000040B0108200B01082E0B0108410B0108CF
:10DE7000D80A010830B5484987B04848FFF746FF3F
:10DE8000014640B9464BB0305B684FF6FF720093D5
:10DE90000B46F6F74CF94348FFF75AFE4248FFF7A6
:10DEA00057FE4148FFF754FE4048FFF751FE4048F7
:10DEB000FFF74EFE3F48FFF74BFE3F48FFF748FE97
:10DEC0003E48FFF745FE3E48FFF742FE3D48FFF75C
:10DED0003FFE3D48FFF73CFE3C48FFF739FE3C481B
:10DEE000FFF736FE3B48FFF733FE3B48FFF730FEB7
:10DEF0003A48FFF72DFE3A48FFF72AFE3948FFF768
:10DF000027FE3948FFF724FE3848FFF721FE38483E
:10DF1000FFF71EFE3748FFF71BFE3748FFF718FED6
:10DF20003648FFF715FE3648FFF712FE3548FFF773
:10DF30000FFE3548FFF70CFE3448FFF709FE344862
:10DF4000FFF706FE3348FFF703FE3348FFF700FEF6
:10DF50003248FFF7FDFD0024314B03ADE2580C21A0
:10DF6000284600F053F900232E488DF81930043468
:10DF7000FFF7EEFD2846FFF7EBFDB4F5005FEBD1B0
:10DF80002948FFF7E5FD2948FFF7E2FD2848FFF79C
:10DF9000DFFD07B030BD00BF5C0B0108530B01086B
:10DFA0000C180020600B01086F0B01087E0B0108A4
:10DFB000840B0108A10B0108BB0B0108D60B01085B
:10DFC000EE0B0108070C0108220C01083E0C0108A9
:10DFD000560C01086F0C01088D0C0108AC0C0108EF
:10DFE000CB0C0108E60C0108020D0108220D010806
:10DFF000420D0108520D0108670D01087D0D010851
:10E00000910D0108A60D0108BA0D0108CF0D0108F8
:10E01000E60D0108FE0D0108170E01082F0E01087C
:10E020004818002027100108460E01085E0E01085E
:10E030006F0E010830B589B003AC3B49204601F0B2
:10E04000A9FF3A4B3A4A1B681168188F0A22B0FBA5
:10E05000F2FC02FB1C0000258DF8145080B2085C15
:10E060001FFA8CFC8DF81300BCFBF2F002FB10CC05
:10E070001FFA8CFC11F80CC08DF812C0B0FBF2FC3A
:10E080000CFB120292B28A5C20468DF81120198F87
:10E09000FFF739F920462749FFF738FE70B12046CF
:10E0A0002449FFF75EFD48B1234B28465B682946AB
:10E0B00000931F222B46F6F73AF833E01F48FFF78C
:10E0C00047FD1F48FFF744FD002403AD2021102227
:10E0D000284601F0F5FE1B4B0C21E258284600F0C3
:10E0E00095F82C238DF81830223B8DF819302846EE
:10E0F0000A3B04348DF81A30FFF72AFDB4F5005FAF
:10E10000E3D10A4CFFF7E8FA23681A8F01321A8725
:10E1100000F0E8F92368B3F96420002A02DC98884B
:10E1200000F05EFA09B030BD7F0E01080018002033
:10E1300028180020880E01080C1800208C0E0108F9
:10E14000A60E010848180020B0F80024B0F80234E8
:10E150009A4214BF002001207047B0F80234B0F892
:10E1600000249A4201D10020704730F81320013377
:10E170009BB2B3F5007F0A80A0F8023401D20120DF
:10E1800070474FF00003A0F8023401207047B0F848
:10E190000034B0F8020401339BB2B3F5007F28BF0E
:10E1A0000023984214BF002001207047B0F80024DB
:10E1B000B0F802C4531C9BB2B3F5007F28BF002304
:10E1C0009C4501D10020704720F81210A0F80034BF
:10E1D0000120704710B5002304E04FF0200C00F838
:10E1E00003C001335FFA83FC8C45F6D30139C9B211
:10E1F000054C02F00F032468E35C43540139120913
:10E20000C9B2F5D110BD00BF2818002010B50023F9
:10E2100004E04FF0200C00F803C001335FFA83FCE8
:10E220008C45F6D30139C9B24FF00A0CB2FBFCF3AE
:10E230000CFB1322044C2468A25C42540139C9B27D
:10E240001A46002BF0D110BD2818002030B500234D
:10E2500004E04FF0200C00F803C001335FFA83FCA8
:10E260008C45F6D3002A01DB002401E05242012450
:10E27000002343540139C9B24FF00A0C92FBFCF35E
:10E280000CFB1322064D2D68AA5C425401391A1E5C
:10E29000C9B201DD0029EFD10CB12D23435430BDAB
:10E2A0002818002037B5002A02DA5242012100E086
:10E2B00000210DF10603ADF102050A24B2FBF4FCC6
:10E2C00004FB1C225A70013BAB426246F5D100238D
:10E2D0002022C25401330A2BFAD10A3B00F109046F
:10E2E00083721DF803201FFA83FC0133002AF8D043
:10E2F0009DF80730621E303343729DF806300530BA
:10E30000303304F8013C9DF80530303302F8013C0D
:10E310002E2302F8023C01AA1FFA8CF307E092F8C0
:10E3200001C001330CF1300C80F801C09BB20FFA30
:10E3300083FC0446013A0138BCF1040FEFDD09B15A
:10E340002D2323703EBD294A4FF47A73B1FBF3FCB1
:10E35000F0B5BCFBF2F402FB14CC4FF46162BCFBE1
:10E36000F2F502FB15CC3C210A23A6B2BCFBF1F26C
:10E3700001FB12CCB6FBF3F101F1300703FB116195
:10E38000ACB2303195B2024602F8017B41702021D7
:10E390005170B4FBF3F101F1300603FB1141501C45
:10E3A000B5FBF3F44670421C04F1300603FB145431
:10E3B000501C30315170421C3A214170501C567033
:10E3C0001FFA8CFC421C303444705170BCFBF3F1DA
:10E3D00003FB11C3501C421C303301F13004447064
:10E3E0005370501C00234370F0BD00BF80510100EA
:10E3F000034B012A0CBF1968596801F0CBBD00BF5F
:10E4000094020108314810B54FF0EF0444824FF0F8
:10E410000504048341F28834C4612D4C4FF4A07C80
:10E4200044624FF47A7484622A4CA0F810C0A0F8B9
:10E4300014C0C4624FF003024FF0CF0C4FF4FA74D3
:10E440004281A0F816C001224463234B4FF4617C43
:10E450004FF4006400210273827680F82020A0F837
:10E4600030C082879446C487A0F8422080F84420B8
:10E4700040F2FF744FF48062036081808171C1714A
:10E48000017241738173C173C176018780F83A10BC
:10E49000A0F84620A0F84040A0F848200F4A80F895
:10E4A0004A10826580F85C104FF00F02A0F86410EB
:10E4B0000B49A0F85E204FF09603682280F860C0F8
:10E4C000A0F86230BDE81040F5F73DBEC83A002024
:10E4D00080E5F9FF30381F0015091200A086010001
:10E4E00000C40008024803496822F5F72CBE00BFAB
:10E4F000C83A002000C40008024803496822F5F722
:10E5000024BE00BFC83A002000C40008F7B51C466E
:10E510001B6807460E461546009304202B463946D5
:10E520003246F5F704FE2379083B0B2B57D8DFE87A
:10E5300003F0061A101A56242E433956564DA36876
:10E54000A0201B783946009332462B46FEF73CFE4E
:10E5500045E0A368C0201B783946009332462B461D
:10E56000FEF724FE3BE0A368B0201B7839460093F9
:10E5700032462B46FEF71EFF31E0A368A0201B8821
:10E580003946009332462B46FEF7A7FE27E0A368E4
:10E590009820B3F900303946009332462B46FEF7F7
:10E5A00059FE1CE0A36868201B6839460093324678
:10E5B0002B46FEF77BFE12E0A36860201B683946FD
:10E5C000009332462B46FEF72EFE08E0A368782023
:10E5D0001B683946009332462B46FEF70DFEFEBD02
:10E5E0002DE9F84507460020FEF7D2FD194BBC1F68
:10E5F000B3F912A0A4B2184B18220AEBDA7A26B2A9
:10E600004FEA6A0A02FB073802FB06361FFA8AFA4B
:10E610000AF16005AAF1600AADB21FFA8AFA242C49
:10E620000ED823B2BB42A8B204D100214FF6FF722C
:10E63000434603E04FF6FF7100223346FFF766FFC3
:10E640001836AA4504D00134103DA4B2ADB2E6E7B5
:10E65000BDE8F885C83A00209C02010837B50D4C8A
:10E66000A588FFF7CFFEB4F912100B4B01EBD17167
:10E670001B6849100093B02089B200224FF6FF7347
:10E68000F5F755FD022328B2A371A58003B0BDE8BC
:10E690003040A5E7C83A00202C180020754B37B54C
:10E6A0009B88754A1824033804FB0324052800F2CC
:10E6B000FF80DFE810F00600FD002E002A00390080
:10E6C00082006C4CA37B6373FFF70CFF607BFEF74B
:10E6D00041FDE3790020A371FEF75AFD606BFEF760
:10E6E0009BFBA3791BB1012B40F0E28006E000F018
:10E6F000DFFB03B0BDE8304000F0FEBB00F0BEFB26
:10E7000003B0BDE8304000F003BB232B05D8013334
:10E7100001E013B1013B574A9380564BB3F9040013
:10E7200003B0BDE830405BE72379524D023B112B2B
:10E7300000F2AF80DFE813F066006900AD00510021
:10E7400054006C0012001500150015001E00240076
:10E75000290038003200AD00AD003800A368002267
:10E7600062E0A36821691A788A4240F39280217B93
:10E77000521A59E0A36821691A7850B28842F4E726
:10E78000A36821691A888A4204E0A36821691A886B
:10E7900010B288427DDDA189521A62E0A368216926
:10E7A0001A688A4205D874E0A36821691A688A4207
:10E7B0006FDDB4F90C10521A6AE023792D4D023B3B
:10E7C000112B66D8DFE803F01E2165090C24272AE7
:10E7D00032323740455C4F65655CFFF72BFC01E04A
:10E7E000FFF748FBB5F91210244B01EBD1711B6800
:10E7F00049100093B02089B200224FF6FF73F5F75D
:10E8000096FC46E0FEF772FBECE7FEF755FAE9E707
:10E81000FFF724FF3DE0A368012205E0A3686169DA
:10E820001A788A4235DA01321A7032E0A3686169D7
:10E830001A788A4204E0A36861691A7850B2884263
:10E8400027DA217B5218EFE7A36861691A888A42A8
:10E8500004E0A36861691A8810B2884219DAA189B4
:10E8600052181A8015E0A36861691A688A4210D2AA
:10E870000BE000BFC83A00209C0201082C180020C1
:10E88000A36861691A688A4203DAB4F90C10521855
:10E890001A60084B0021B3F912304FF6FF7203EBF8
:10E8A000D373581080B2234603B0BDE830402DE644
:10E8B00003B030BDC83A002030B589B0FEF7F4FA95
:10E8C000FEF78DFB6C4B18805880FEF7F7FA6A4C08
:10E8D000B4F90220B4F900309A4202D1FEF77FFB6E
:10E8E0002080654A538812889342F0D0634A1168A9
:10E8F000481CB1F5FA6F106005D361490868013012
:10E900000860002111605F4A19B232F811004FF41B
:10E910007A7200B2C0F5006050430133564A9BB290
:10E9200053801BB2B3F5006FA4BF0023538003AB29
:10E9300009AA53F8041C43F8081C04339342F8D185
:10E94000059A069B019DD31803991B185B1B029D1A
:10E950005B1A5B1B4C4D079095F800C0049CBCF102
:10E96000030FB4D8DFE80CF002041C7601227FE02C
:10E97000464A917E19B9526A934207DD04E00129A3
:10E9800004D1526A934201DA022271E03B4B142116
:10E990005A6801FB0200152290FBF2F0586096E7DE
:10E9A0003A48807E10B9002B09DA03E0012806D12D
:10E9B000002B04DD344B4FF0030C83F800C0324BC6
:10E9C00093F800C0BCF1030F81D1304B93F8203095
:10E9D0009BB1C2EB010C4FF4FA7303FB0CF352181A
:10E9E0004FEA440ECEEB020293FBF2F30CFB03F36F
:10E9F000274A93FBF2F31B1903E063189B1893FB60
:10EA0000FCF3224A0128916A08BF5B428B427FF7E0
:10EA10005EAFD16A8B42BFF65AAF4FF47A7193FB67
:10EA2000F1F31C491BB251F8230092F86020013029
:10EA300041F82300114B996801319960002A3FF495
:10EA400046AF1B7B002B7FF442AF0A200146FEF746
:10EA500083FA3CE70D4A927E22B9002BFFF637AFCE
:10EA6000013205E0012A7FF432AF002B3FF72FAFD0
:10EA7000054B1A702BE700BF301800208C4D00208A
:10EA800040180020343B002004180020C83A002021
:10EA900060F0FFFF48180020204B5B6813F5FA7FF9
:10EAA00003DA1F4B9A88013A05E0B3F5FA7F03DDDC
:10EAB0001B4B9A8801329A80194B9A88194B1A601D
:10EAC000194B03F51E72063233F8021C23F8041C9E
:10EAD00002339342F8D1114B3C219A685143134AB7
:10EAE000B2F90A00B1FBF0F1114801601148006869
:10EAF00018611148A0F87E1200209860906D814244
:10EB000008D9127A32B101220A2041F288311A73EF
:10EB1000FEF722BA014B00221A7370478C4D002079
:10EB200030180020400000404C380020C83A002037
:10EB300044180020401800204838002008B5002163
:10EB40004FF40052084801F0BBF94FF42072074817
:10EB5000002101F0B5F9064A00231360054A13604D
:10EB6000054A137008BD00BF48180020483800202F
:10EB700040180020384B00200418002070474FF444
:10EB80007A73584370474FF47A7390FBF3F000B2F6
:10EB900070473C4B13B59B8A0FFA83FC604501DB41
:10EBA000581E00B2374B22EAE272DC8A1FFA82FC5E
:10EBB00023B29A42A8BF04F1FF3C21EAE17122B2DC
:10EBC00020EAE070A8BF1FFA8CFC914280B28BB2A1
:10EBD00001DB013CA3B2233399B22A4B1A7B32B931
:10EBE0004FF6FF7202B0BDE81040FEF715BC0CF105
:10EBF000230C012A1FFA8CFC19D10CB20FFA8CF3EA
:10EC00009C4206DDCCEB01034FF6FF71009161469B
:10EC100029E007DA4FF6FF73C1EB0C0C00931FFAE3
:10EC20008CF32AE02BD14FF6FF73009324E0022AE5
:10EC300025D10AB20FFA8CF39A4209DD0138CCF1E2
:10EC400002034FF6FF72CB18009280B2614609E0D2
:10EC50000BDA01380CF1020C4FF6FF72C1EB0C031A
:10EC6000009280B203229BB207E008D101384FF630
:10EC7000FF73009380B203221346F5F75CFA02B0EB
:10EC800010BD00BFC83A00201A4B07B5B3F91020D9
:10EC90009B6D0020B3FBF2F2174B1F211B68B3FBE7
:10ECA000F2F240F2FF73009392B20323F5F743FAB6
:10ECB000124B1B7833B1124BB820009310211F2246
:10ECC000002305E00F4AB820009210214FF4FC62A7
:10ECD000F5F72DFA0C4BD0201A7819780B4B33F836
:10ECE000122003EB8103DB68102100930023F5F76A
:10ECF0001EFA0EBDC83A0020441800203C1800201F
:10ED0000981301089A130108444B002014060108C7
:10ED10002DE9F74F564E4FF00008F38AB28A0233BE
:10ED20009BB240461F21CDF80080F5F704FA96F813
:10ED30005C3013B91E46984662E0B6F90A204FF4DB
:10ED40007A735A43B6F95E1003FB02FB03FB0123FF
:10ED5000C2469BFBF3FB4646454643462CE0454AEC
:10ED60004FF47A7438F8022030B26243CAEB0202E0
:10ED70000BFB02F292FBF4F212EB0A0A3E4A48BF86
:10ED80006FF0004A12689AFBF4F4A4B294FBF2F11B
:10ED900093FBF2F209B212B2FFF7FBFEB9F962304F
:10EDA000AC4228BF25469E4208BF27460136ADB279
:10EDB000B6B208F102082346DFF8B490B9F914207E
:10EDC0009642CCDB22E02B4A0FFA88F0B45A2A4A4A
:10EDD000A54238BF25461268ADB294FBF2F193FB11
:10EDE000F2F209B212B2FFF7D4FEBAF9623002367B
:10EDF000984508BF274608F101081FFA88F82346FE
:10EE0000DFF86CA0BAF914209045DCDB184AD38AED
:10EE1000B2F8620019B2127B95FBF1F51649013583
:10EE2000022A0D6009D1002808BF01201D320138D7
:10EE3000009280B223211C3A03E01F22009223217A
:10EE40001E3AF5F778F91021002348204FF6FF729B
:10EE50000094FEF742FA002148204FF6FF720B465D
:10EE60000097FEF73AFA03B0BDE8F04F0CE700BF99
:10EE7000C83A002048380020A04D002013B50B4CA4
:10EE80000020FEF785F9236A002000931021034635
:10EE90004FF6FF72F5F74BF9636A002000930146C5
:10EEA0004FF6FF720346F5F742F91CBD1406010840
:10EEB00013B50F4C0020FEF76BF9A36A00200093F6
:10EEC000102103464FF6FF72F5F731F9094B93F81D
:10EED0004A0018B1E36A0020009301E0236B00931D
:10EEE00001464FF6FF720346F5F721F91CBD00BF3E
:10EEF00014060108C83A00202DE9F04F664C89B08D
:10EF0000E38A00200233A28A1F219BB20090F5F70A
:10EF100012F9B4F84000B4F84270B4F84820C51BA8
:10EF200013B205903EB2B4F9140006939B1B5843EC
:10EF3000237BB4F846102DB290FBF5F0022B039121
:10EF4000049280B20BD103B2002BD8BF01201F2244
:10EF50000138E38A80B2009223211C3A04E01F2288
:10EF6000E38A232100921E3AF5F7E5F84A4B7642F0
:10EF7000B3F91400494B70430FFA87F8002603EBEE
:10EF8000880390FBF5F0079380B2BFB23246B246D9
:10EF9000B14633463BE0B4F914B00BFB06FB9BFBD8
:10EFA000F5FB1FFA8BFB584501D18C450ED13C492E
:10EFB00012B24C6800B2B3FBF4F4A4B221B29A4589
:10EFC00038BF9A46FFF7E5FDA2B20023079850F834
:10EFD0002610314890F83A0008B108FB01F1DDF83D
:10EFE00010E038B20FFA8EFC844506DCDDF80CE048
:10EFF0000FFA8EFC6045D8BF894401378B4238BF79
:10F000000B46BFB2013608F101081FFA8BF0DDF89C
:10F0100014E00FFA87FC0FFA8EF18C451E4CBADD16
:10F02000B4F916201E4BBAFBF2FA0AF101025A603B
:10F0300094F84430102100934FF6FF7200236820AB
:10F04000FEF7B8F9002001464FF6FF720346CDF8EF
:10F050000090FEF72BF90399069A08B2801800EB8E
:10F06000D07094F84A10401000B251B1FFF787FDFC
:10F07000002100904FF6FF7278200B46FEF7BCF897
:10F0800006E000904FF6FF7278200B46FEF725F958
:10F0900009B0BDE8F04FF7E5C83A00204818002055
:10F0A000A04D002008B500214FF40052114800F097
:10F0B00007FF4FF420721048002100F001FF0F4BB2
:10F0C000DA8F013AA3F840204FF00002A3F8422063
:10F0D000B3F9142002EBD272521092B2A3F8482076
:10F0E000A3F84620012283F84420054B5A601A6099
:10F0F00008BD00BF4818002048380020C83A00204A
:10F10000A04D0020044B1A6802F038021A601A68F9
:10F1100040EA02021A60704700200240044B1A685D
:10F1200022F008021A601A6840EA02021A60704768
:10F1300000200240044B1A6822F010021A601A687C
:10F1400040EA02021A60704700200240024B034A64
:10F150005A60034A5A607047002002402301674505
:10F16000AB89EFCD024B1A6942F080021A617047F9
:10F1700000200240014BD8698008704700200240FF
:10F18000014B186A704700BF00200240024BD8694B
:10F19000400800F00100704700200240024B186850
:10F1A000400900F0010070470020024019B1054BF2
:10F1B0001A69104303E0034B1A6922EA0000186140
:10F1C000704700BF002002400128064B03D1D869D8
:10F1D00000F001007047DB6818420CBF00200120DE
:10F1E000704700BF00200240014BD860704700BF4D
:10F1F000002002400A4BDA6812F0010F01D0012012
:10F200007047DA6812F0040F01D002207047D86806
:10F2100000F01000002814BF03200420704700BF36
:10F220000020024013B50446FFF7E4FF0CE0002382
:10F230000193FF3301E0019B013B0193019B002BF4
:10F24000F9D1FFF7D7FF013C012802D1002CEED104
:10F2500000E004B905201CBDF8B5114E114B044661
:10F26000B360114B0F20B3600D461746FFF7DAFF6E
:10F27000042814D1336944F0F80443F010033361D7
:10F2800025430A4B2F430B305F80FFF7CBFF01284C
:10F2900005D0326941F6EF7302EA03033361F8BD2A
:10F2A0000020024023016745AB89EFCD00F8FF1F26
:10F2B00038B5054640F6FF70FFF7B4FF04283BD190
:10F2C0001E4C1F4B40F6FF70A3601E4BA3602369CA
:10F2D00043F020032361236943F040032361FFF7D8
:10F2E000A1FF042820D1226941F6DF7302EA03035B
:10F2F0002361236943F0100323611DB1124B4FF0CA
:10F30000000202E0104B4FF0A5021A8040F6FF7099
:10F31000FFF788FF01280FD0084A41F6EF73116903
:10F3200001EA0303136138BD012805D0226941F6C3
:10F33000DF7302EA0303236138BD00BF00200240EF
:10F3400023016745AB89EFCD00F8FF1F10B50446D8
:10F350000F20FFF767FF04283ED1204B2049E443EC
:10F3600099602049E2B299601969FF2A41F01001C1
:10F37000196106D01C4B0B301A81FFF753FF04288C
:10F3800021D104F47F431B0AFF2B06D0164A0F201D
:10F390005381FFF747FF042815D104F47F031B0CAA
:10F3A000FF2B06D0104A0F209381FFF73BFF042864
:10F3B00009D1240EFF2C01D1042006E00A4B0F20B6
:10F3C000DC81FFF72FFF012806D0044A41F6EF73D6
:10F3D000116901EA0303136110BD00BF0020024060
:10F3E00023016745AB89EFCD00F8FF1F70B50446D8
:10F3F0000F200E46FFF716FF042814D10A4D0B4BC1
:10F400000B30AB600A4BAB602B6943F010032B61F0
:10F410002680FFF707FF012805D02A6941F6EF7320
:10F4200002EA03032B6170BD0020024023016745FF
:10F43000AB89EFCD70B504460F200E46FFF7F2FE04
:10F44000042810D1084D0B302B6943F001032B61C8
:10F450002680FFF7E7FE012805D02A6941F6FE73F2
:10F4600002EA03032B6170BD0020024070B5044620
:10F470000F200E46FFF7D6FE042821D1114D0B3088
:10F480002B6943F001032B61B3B22380FFF7CAFE5F
:10F4900004280DD1360C0B306680FFF7C3FE01281F
:10F4A0000ED02A6941F6FE7302EA03032B6170BD98
:10F4B000012805D02A6941F6FE7302EA03032B6195
:10F4C00070BD00BF0020024010B540F6FF70FFF78E
:10F4D000A9FE042834D11B4C1B4B40F6FF70A360DF
:10F4E0001A4BA360236943F020032361236943F08F
:10F4F00040032361FFF796FE042819D1226941F6E3
:10F50000DF7302EA0303236123694FF0A50243F08E
:10F51000100323610E4B0B301A80FFF783FE012886
:10F520000ED0226941F6EF7302EA0303236110BD96
:10F53000012805D0226941F6EF7302EA0303236133
:10F5400010BD00BF0020024023016745AB89EFCD0D
:10F5500000F8FF1F10B540F6FF70FFF763FE0428A8
:10F5600014D10B4C40F6FF70236943F00403236170
:10F57000236943F040032361FFF754FE012805D0BF
:10F58000226941F6FB7302EA0303236110BD00BF49
:10F590000020024038B5054640F6FF70FFF742FEF6
:10F5A000042815D10B4C40F6FF70236943F0020389
:10F5B00023616561236943F040032361FFF732FE55
:10F5C000012805D0226941F6FD7302EA0303236195
:10F5D00038BD00BF002002400B4B4FF0FF3140F21E
:10F5E000FF72C3F88010C3F88420C3F88011C3F8F9
:10F5F0008421002303F1C001034A013300200B2BB7
:10F6000042F82100F6D1704700E100E0094B4FF0CD
:10F61000206209495A6000229A60D9601A615A61D1
:10F620009A61DA611A625A62013A9A62DA621A637C
:10F63000704700BF00ED00E00000FA0540F0BE603A
:10F64000024B40F42020D860704700BF00ED00E07E
:10F6500030B5C27803786AB31C4A4478D26880789F
:10F66000D24302F4E062120AC2F1040114FA01F179
:10F670000F24D44004400C4303F0030C4FEACC0C9D
:10F680002401FF2004FA0CF400FA0CF09908104A47
:10F69000C03152F8215025EA000C04EA000040EA8B
:10F6A0000C0042F821005909012003F01F0310FA51
:10F6B00003F307E05909012203F01F0312FA03F3D1
:10F6C000034A203142F8213030BD00BF00ED00E098
:10F6D00000E100E00023037043708370C370704743
:10F6E000034B04485B6803EA0000000B704700BF4F
:10F6F00000ED00E000F03F00012200F01F0312FACD
:10F7000003F34009044A403052F820001840984260
:10F7100014BF00200120704700E100E0014B186099
:10F72000704700BF00EF00E04209012300F01F0016
:10F7300013FA00F0024B603243F82200704700BF1A
:10F7400000E100E0024B58688005800D704700BF63
:10F7500000ED00E0012200F01F0312FA03F340095C
:10F76000044A803052F820001840984214BF00200C
:10F770000120704700E100E0014B1868704700BFAE
:10F7800000ED00E021F0604121F07F01014B0143D9
:10F790009960704700ED00E0014A024BDA60704763
:10F7A0000400FA0500ED00E0014A024BDA60704700
:10F7B0000100FA0500ED00E019B1054B1A6910438C
:10F7C00003E0034B1A6922EA00001861704700BF8A
:10F7D00000ED00E000F01F00012313FA00F019B162
:10F7E000044B5A6A104303E0024B5A6A22EA0000B3
:10F7F0005862704700ED00E0144B30B5DC68FF251F
:10F800006FEA040C0CF4E06C4FEA1C2CCCF10404FD
:10F8100025FA0CFCA14002EA0C0C00F0C0024009E1
:10F8200000F0180085404CEA0101090111FA00F0CE
:10F830009209063253F8224024EA050543F8225083
:10F8400053F82250284343F8220030BD00ED00E079
:10F85000830A012203F00F0312FA03F3044A506AE9
:10F8600003EA0000984214BF00200120704700BF47
:10F8700000ED00E000F01F00012111FA00F0034B41
:10F880005A6840EA02025A60704700BF00ED00E08B
:10F8900000F01F010139012010FA01F1024B5A68F2
:10F8A00041EA02025A60704700ED00E0830B01223A
:10F8B00003F00F0312FA03F3044A506A03EA00004C
:10F8C000984214BF00200120704700BF00ED00E007
:10F8D000830C13F0030302D10A4BD86A7047012B43
:10F8E0000DD1084A030D03F00303906ADA00D040FB
:10F8F000022B14BF00F00F0000F0FF007047014B17
:10F90000186B704700ED00E0034B10F4800F0CBF44
:10F91000586B986B704700BF00ED00E0FCF7A0BF8C
:10F920000001FCF79ABFFCF796BFFCF792BFFCF70B
:10F930008EBFFCF78ABF00BF104B00221421DA6093
:10F940001A6159619A61DA61196841F0010119601F
:10F9500058680B4900EA01015960196821F0847167
:10F9600021F480311960196821F4802119605968E7
:10F9700021F4FE0159609A60704700BF00100240F8
:10F980000000FFF80C4BB0F5803F1A6822F480327B
:10F990001A601A6822F480221A6003D0B0F5802F12
:10F9A00009D104E01A6842F480321A6070471A687C
:10F9B00042F4A0221A60704700100240034B1A68FC
:10F9C00022F0F80242EAC0021A60704700100240BA
:10F9D000014B1860704700BF00004242044B5A6858
:10F9E00022F47C1240EA02020A435A60704700BFC8
:10F9F00000100240014B1860704700BF6000424297
:10FA0000034B5A6822F0030240EA02025A60704730
:10FA100000100240024B586800F00C00704700BF15
:10FA200000100240034B5A6822F0F00240EA020242
:10FA30005A60704700100240034B5A6822F4E0629B
:10FA400040EA02025A60704700100240034B5A68B5
:10FA500022F4605242EAC0025A607047001002402D
:10FA600019B1054B1A78104303E0034B1A7822EAC8
:10FA700000001870704700BF09100240014B186069
:10FA8000704700BFD8004242034B5A6822F44042FC
:10FA900040EA02025A60704700100240064B002202
:10FAA00001281A701A7002D0042804D101E01870DD
:10FAB000704705221A70704720100240014B1860F1
:10FAC000704700BF80044242024B1A6A40EA0202B9
:10FAD0001A62704700100240014B1860704700BF67
:10FAE0003C044242234B10B55A6802F00C02042A2F
:10FAF00014D0082A12D15A68596802F47012920C74
:10FB0000023211F4803F03D05B6813F4003F01D050
:10FB1000194B00E0194B5A43026001E0174B036098
:10FB2000144A174B5168046801F0F0010909595C47
:10FB300034FA01F14160546804F4E06C4FEA1C2C83
:10FB400013F80C4031FA04F48460546804F4605CE7
:10FB50004FEADC2C13F80CC021FA0CF1C16052689A
:10FB600002F4404203EB92331B7CB1FBF3F10161E1
:10FB700010BD00BF0010024000093D0000127A00D5
:10FB80004806010819B1054B5A69104303E0034BBD
:10FB90005A6922EA00005861704700BF0010024015
:10FBA00019B1054B9A69104303E0034B9A6922EAA5
:10FBB00000009861704700BF0010024019B1054B6A
:10FBC000DA69104303E0034BDA6922EA0000D861E6
:10FBD000704700BF0010024019B1054BDA681043AE
:10FBE00003E0034BDA6822EA0000D860704700BFE8
:10FBF0000010024019B1054B1A69104303E0034B92
:10FC00001A6922EA00001861704700BF0010024024
:10FC1000014B1860704700BF40044242014B18601E
:10FC2000704700BF4C004242014B1870704700BF44
:10FC3000071002404309012B02D1074B1B6804E067
:10FC4000022B054B0CBF1B6A5B6A00F01F0033FAE6
:10FC500000F000F0010070470010024008B53120AC
:10FC6000FFF7E8FF084B18705A6801325A601A789B
:10FC700012B95B68FF2BF2D13120FFF7DBFF0038B0
:10FC800018BF012008BD00BFA84D0020024B5A6AD2
:10FC900042F080725A62704700100240034B9B682A
:10FCA00018420CBF00200120704700BF0010024026
:10FCB000014B1870704700BF0A10024082B013B5A4
:10FCC000EC468CE80600019A0099069C5918121916
:10FCD000059301D2994200DA013142600160BDE82A
:10FCE0001C4002B0704782B0EC468CE80600002B46
:10FCF0000A4601990ADD1F2B0EDCC3F1200C21FA04
:10FD00000CFC9A4099404CEA020213E05B424FFA25
:10FD100083FCBCF11F0F03DD0023036043600BE095
:10FD2000CCF1200312FA03F321FA0CF142FA0CF29F
:10FD300043EA01014160026002B0704770B50D14E2
:10FD4000141492B205FB02FC89B201FB04CC4FEA09
:10FD50002C464FEA0C4C05FB046401FB02C1046015
:10FD6000416070BD4FEA204C0B1489B20CFB01F2CC
:10FD700080B200FB032248430CFB03F303EB224356
:10FD800000EB0242824238BF0133A2F5004101EB91
:10FD9000E371914288BF013B090C41EA0343581CBF
:10FDA000704770B586B004AC03460E46154619463A
:10FDB0002046C2F58072FFF7C1FF02A831462A46ED
:10FDC000FFF7BCFF039B2046009394E80600029BCC
:10FDD000FFF774FF94E8060020466FF00703FFF773
:10FDE00082FF059806B070BD70B586B004AC0346BE
:10FDF0000E46154619462046C2F58032FFF79EFF93
:10FE000002A831462A46FFF799FF039B204600933C
:10FE100094E80600029BFFF751FF94E80600204695
:10FE20006FF00F03FFF75FFF059806B070BDD0B508
:10FE300003460A4611B94FF00040D0BD81EAE17196
:10FE4000A1EBE2710C0D80EAE0702405A0EBE370F9
:10FE50005CB14C0C0134B0FBF4F4A4FB01674FEA35
:10FE6000564C4CEAC73CCCEB00004FF0110C02E0C2
:10FE70000909ACF1040C11F00F0F15D1BCF1010F01
:10FE8000F6D111E0B0FA80F66645A8BF6646B040EC
:10FE9000C6EB0C0CB0FBF1F601FB160006FA0CF6F3
:10FEA0004000A4190CF1FF3C10B1BCF1000FE9DADD
:10FEB0000134600892EA030F48BF4042D0BD000001
:10FEC000032AC9B230B407D822B10023C154013388
:10FED0009342FBD130BC704700EB020C034601E0BB
:10FEE00003F8011C03F003041A460133002CF7D178
:10FEF0004FF00133C2EB0C0403FB01F31FE042F8A7
:10FF0000403C42F83C3C42F8383C42F8343C42F831
:10FF1000303C42F82C3C42F8283C42F8243C42F861
:10FF2000203C42F81C3C42F8183C42F8143C42F891
:10FF3000103C42F80C3C42F8083C42F8043C1546A0
:10FF400040323F2CA4F14004D9DC2A46C5EB0C0416
:10FF500007E042F8103C42F80C3C42F8083C42F8FA
:10FF6000043C154610320F2CA4F11004F1DC2A4693
:10FF7000C5EB0C0501E042F8043C14460432032DA5
:10FF8000A5F10405F7DC01E004F8011B6445FBD38F
:10FF9000A0E700BF80EA0102844612F0030F4FD1B0
:10FFA00011F0030F32D14DF8044D11F0040F51F848
:10FFB000043B0BD0A3F101329A4312F0803F04BFFF
:10FFC0004CF8043B51F8043B16D100BF51F8044BE8
:10FFD000A3F101329A4312F0803FA4F101320BD118
:10FFE0004CF8043BA24312F0803F04BF51F8043B9D
:10FFF0004CF8044BEAD023460CF8013B13F0FF0FFA
:020000040801F1
:100000004FEA3323F8D15DF8044B704711F0010F2C
:1000100006D011F8012B0CF8012B002A08BF7047FD
:1000200011F0020FBFD031F8022B12F0FF0F16BFF4
:100030002CF8022B8CF8002012F47F4FB3D17047BC
:1000400011F8012B0CF8012B002AF9D1704700BFE1
:1000500020F0030110F00300C0F1000051F8043B50
:1000600000F1040C4FEACC0C6FF000021CBF22FA26
:100070000CF213434FF0010C4CEA0C2C4CEA0C4CE4
:10008000A3EB0C0222EA030212EACC1204BF51F8DD
:10009000043B0430F4D013F0FF0F1FBF013013F402
:1000A0007F4F013013F47F0F18BF0130704700BF3E
:1000B00030B41346002A43D041EA000212F0030F85
:1000C00025D1032B04460D463DD9026809688A42B2
:1000D00039D1043B34D0A2F1013121EA020212F0FD
:1000E000803F0DD02CE022682968A2F101308A42BD
:1000F00020EA020027D1043B22D010F0803F1FD11C
:1001000004340435032BEED820462946F3B1047895
:10011000013B91F800C064450FD18BB184B1013B24
:10012000002202E063B15CB1013B84188D180132FA
:10013000647895F801C06445F4D0CCEB040000E08D
:10014000002030BC704720462946E0E7247895F827
:1001500000C0CCEB0400F4E7002103E0094B5B583E
:10016000435004310848094B42189A42F6D3084AD2
:1001700002E0002342F8043B064B9A42F9D3FCF715
:10018000AFFD70474C1401080018002038180020FB
:1001900038180020B04D0020FEE700005C06010882
:1001A0007206010886060108A2060108E406010895
:1001B000040701081B070108360701080B000B00A4
:1001C0000B000B000B000F000F000F000F000F00C3
:1001D0000F001F003F003F007F00FF00FF00FF00F7
:1001E000FF01FF01FF01FF030600060006000600F5
:1001F00006000800110023005900B3006701C10187
:10020000C101830364046404C908F815F815F12BCF
:10021000DC6DDC6D0000000000000000000000004C
:1002200000000000000000000000000000000000CE
:100230000000000003000000030000000F000000A9
:100240000F0000003F0000003F0000007F000000A2
:100250007F000000470000008F00000067010000E1
:10026000CF0200009F0500000F0E00001F1C0000C1
:100270003F380000272300004F46000027230000DE
:10028000E3570000F12B0000E3570000DC6D000095
:10029000B9DB0000090F01080F0F01081D0F01084D
:1002A000000000000000000000000000000000004E
:1002B000000000003C0F010809000000CF3A0020B8
:1002C0000100000000000000010000005B0F0108B9
:1002D0000D000000003B00200100000000000000B5
:1002E000FFFF00007A0F0108050000000000000079
:1002F000000000000000000000000000990F01084D
:1003000006000000000000000000000000000000E7
:1003100000000000B80F010803000000000000000A
:10032000000000000000000000000000D70F0108DE
:1003300008000000D03A002000000000000000008B
:1003400001000000F60F010810000000203B002013
:10035000F40100000100000040420F0015100108E8
:1003600008000000283B0020000000000000000002
:10037000010000003410010800000000000000002F
:100380000000000000000000000000005310010801
:1003900008000000023B00200000000000000000F8
:1003A00001000000721001080E000000043B002054
:1003B0000100000001000000D007000091100108BA
:1003C0000E000000063B00200100000000010000BC
:1003D00000080000B010010800000000000000004C
:1003E000000000000000000000000000CF10010825
:1003F00013000000143B002000000000000000007B
:10040000FFFFFF7FEE10010813000000183B0020E3
:100410000000000000000000FFFFFF7F0D11010839
:10042000130000001C3B0020000000000000000042
:10043000FFFFFF7F2C1101080000000000000000FA
:100440000000000000000000000000004B11010847
:1004500008000000243B0020000000000000000015
:10046000010000006A1101080E000000263B002078
:1004700001000000000000000807000089110108C9
:10048000000000000000000000000000000000006C
:1004900000000000A811010809000000E23A002055
:1004A000010000000000000001000000C711010869
:1004B00008000000E83A00200000000000000000F2
:1004C00001000000E611010813000000EC3A0020D2
:1004D00010270000C0BDF0FF40420F0005120108C8
:1004E00013000000F03A0020881300000000000014
:1004F00000401F002412010813000000F43A0020FD
:10050000881300000000000000401F004312010893
:1005100013000000FC3A0020F4010000000000007D
:1005200070170000621201080200000000000000C5
:10053000000000000000000000000000811201081F
:1005400000000000000000000000000000000000AB
:1005500000000000A01201080E000000D23A0020A6
:10056000010000000100000080510100BF120108DD
:1005700009000000D43A0020010000000000000043
:1005800002000000DE12010809000000D63A002037
:10059000010000000000000001000000FD12010841
:1005A00009000000D73A0020010000000000000010
:1005B000040000001C1301080000000000000000FF
:1005C0000000000000000000000000003B130108D4
:1005D0000700000000000000000000000000000014
:1005E000000000005A1301080E0000002C3B002000
:1005F0000100000000000000640000007913010801
:1006000000000000000000000000000000000000EA
:10061000000000001F00FF07E007E007E007000000
:100620009C130108A0130108A4130108A8130108D2
:10063000AC130108B0130108CF130108EE13010831
:100640000D1401082C14010800000000010203042D
:1006500001020304060708090204060855736167CE
:1006600065204661756C7420457863657074696FA8
:100670006E00427573204661756C74204578636521
:100680007074696F6E004D656D6F7279204D616E8B
:100690006167656D656E7420457863657074696F18
:1006A0006E0048617264204661756C742045786301
:1006B000657074696F6E00446F5F4B6579735F524C
:1006C00061746500446F5F4B6579735F504841000A
:1006D000436C6561725F416C6C5F44617461006D75
:1006E00061696E002020415050205265766973691F
:1006F0006F6E20302E31322028323031322F392F98
:1007000031352900202020202020202020323034A4
:1007100038204368616E6E656C73002020202020B5
:10072000204F70656E20536F7572636520536F663E
:100730007477617265002020202020202020202056
:100740004E6F2057617272616E7479004E657874D5
:10075000436C7573742829004E657874436C757307
:100760007428292043757246696C6541646472007F
:100770004E657874436C757374282920526F6F74BA
:100780005F41646472004E657874436C75737428BD
:100790002920437572436C75737465720046415429
:1007A0005F496E666F2829004641545F496E666F47
:1007B0002829207265616420706172746974696FA0
:1007C0006E206661696C6564004641545F496E66DF
:1007D0006F282920726420626F6F742073656374C0
:1007E000206661696C6564004641545F496E666FBE
:1007F0002829204641543136004641545F496E66EF
:100800006F282920536563746F7253697A650046B7
:1008100041545F496E666F282920536563506572A5
:10082000436C7573004641545F496E666F282920FA
:100830004641545F41646472004641545F496E66AC
:100840006F282920526F6F745F41646472004641C3
:10085000545F496E666F282920446972426C6B4E62
:10086000756D004641545F496E666F2829204644E5
:10087000545F5374617274004641545F496E666FF1
:100880002829204644545F436C7573746572004395
:100890006C6F736528292043757244697200436C3C
:1008A0006F73652829204572726F72206F6E2077F2
:1008B000726974696E672066696C652900436C6FA4
:1008C0007365282920457272206F6E2064697265F5
:1008D00063746F727920726561642900436C6F7371
:1008E00065282920457272206F6E206469726563E5
:1008F000746F727920777269746500436C6F7365E9
:1009000028292066696C652073697A6500446972DC
:10091000546F75636800476574436C757374282958
:1009200000476574436C7573742829204641545FF1
:100930004164647200476574436C757374282920A0
:10094000437572436C757374657200476574436CCC
:100950007573742829206164647200476574436C60
:100960007573742829206900476574436C75737426
:1009700028292043757246696C654164647200479A
:100980006574436C757374282920526F6F745F41CE
:1009900064647200416464436C7573742829204652
:1009A00041545F4164647200416464436C757374C4
:1009B0002829206164647200416464436C75737417
:1009C0002829206900416464436C757374282920C8
:1009D000476574436C757374206661696C65640067
:1009E000575F446174612829204572726F72206FCD
:1009F0006E2072656164696E672066696C652900A6
:100A0000575F446174612829206C656E2000575F30
:100A100044617461282920626C6F636B2066696C85
:100A20006C656400575F44617461282920457272C7
:100A30006F72206F6E2077726974696E67206669C5
:100A40006C6529004E65772829004E657728292096
:100A5000646972696E646578004E65772829204D57
:100A600053445F52656164426C6F636B20666169D9
:100A70006C6564004E6577282920666F756E64206A
:100A8000656D70747920656E747279004E65772893
:100A900029204D53445F5772697465426C6F636BD4
:100AA000206661696C6564004E657728292043756E
:100AB00072446972004E6577282920437572466931
:100AC0006C6541646472004E657728292043757215
:100AD000436C7573746572004F70656E2829206EC3
:100AE0006F2066696C6520666F756E64004F706577
:100AF0006E2829004F70656E282920646972696E1E
:100B0000646578004F70656E2829204D53445F520C
:100B1000656164426C6F636B206661696C6564003B
:100B20004F70656E282920437572446972004F70BA
:100B3000656E28292043757246696C65416464724C
:100B4000004F70656E282920437572436C7573746D
:100B500065720046494C4530303030004441540005
:100B60003C4D6561737572656D656E743E0A00205B
:100B70002020203C52656D61726B733E0A0020207C
:100B800020200A00202020203C496E737472756D6D
:100B9000656E74496E666F726D6174696F6E3E0A40
:100BA0000020202020202020203C496E7374727584
:100BB0006D656E74547970653E0A002020202020F7
:100BC0002020203C2F496E737472756D656E7454CD
:100BD0007970653E0A0020202020202020203C4DF6
:100BE000616E7566616374757265723E0A002020DD
:100BF0002020202020203C2F4D616E75666163749B
:100C0000757265723E0A0020202020202020203CA2
:100C1000496E737472756D656E744D6F64656C3E6C
:100C20000A0020202020202020203C2F496E7374B1
:100C300072756D656E744D6F64656C3E0A002020A0
:100C40002020202020203C496E737472756D656EE3
:100C50007449443E0A0020202020202020203C2FE0
:100C6000496E737472756D656E7449443E0A002056
:100C70002020203C2F496E737472756D656E744927
:100C80006E666F726D6174696F6E3E0A002020207F
:100C9000203C4D656173757265644974656D496E7C
:100CA000666F726D6174696F6E3E0A0020202020AD
:100CB000202020203C4D6561737572656D656E74F2
:100CC0004C6F636174696F6E3E0A00202020202003
:100CD000202020202020203C436F6F7264696E61C9
:100CE0007465733E0A002020202020202020202030
:100CF00020203C2F436F6F7264696E617465733E90
:100D00000A0020202020202020203C2F4D656173E8
:100D10007572656D656E744C6F636174696F6E3E5C
:100D20000A00202020203C2F4D6561737572656498
:100D30004974656D496E666F726D6174696F6E3E60
:100D40000A00202020203C537065637472756D3E4C
:100D50000A0020202020202020203C53746172743F
:100D600054696D653E0A0020202020202020203C70
:100D70002F537461727454696D653E0A00202020FF
:100D800020202020203C5265616C54696D653E0A2C
:100D90000020202020202020203C2F5265616C5410
:100DA000696D653E0A0020202020202020203C4C38
:100DB00069766554696D653E0A0020202020202058
:100DC00020203C2F4C69766554696D653E0A0020F1
:100DD000202020202020203C43616C6962726174D5
:100DE000696F6E3E0A002020202020202020202035
:100DF00020203C4571756174696F6E3E0A002020A9
:100E0000202020202020202020203C2F45717561AB
:100E100074696F6E3E0A0020202020202020203C94
:100E20002F43616C6962726174696F6E3E0A0020C3
:100E3000202020202020203C4368616E6E656C4499
:100E40006174613E0A0020202020202020203C2FB9
:100E50004368616E6E656C446174613E0A002020D7
:100E600020203C2F537065637472756D3E0A003C00
:100E70002F4D6561737572656D656E743E0A005322
:100E800050454354303030004353560047616D6D38
:100E90006120477261706865722056657273696F70
:100EA0006E20322C0A00436F6D6D612053657061B6
:100EB00072617465642056616C7565732C0A005705
:100EC0007269746520457272004E6F2046696C65C8
:100ED00000534420457272004E6F204361726400DB
:100EE00053617665204F6B004661696C6564005202
:100EF00065616420457272003031323334353637E3
:100F00003839414243444546005452554520004635
:100F1000414C5345005375636365737300465245F6
:100F20005155454E544C5920555345443A202020A4
:100F3000202020202020202020202000204D6F6411
:100F4000653A205048412C205261746520202020B1
:100F500020202020202020202020002046696C65B1
:100F6000205365712053746172743A202020202030
:100F70002020202020202020200020536176652082
:100F8000537065637472756D20546F2043535620FF
:100F900046696C652020202000202A536176652058
:100FA000537065637472756D20546F204E34322017
:100FB00046696C652020200020436C6561722041E9
:100FC0006C6C202020202020202020202020202089
:100FD0002020202020200020416C61726D20456E71
:100FE00061626C653A2020202020202020202020D3
:100FF00020202020200020416C61726D204C6576FD
:10100000656C3A2020202020202020202020202035
:1010100063706D200020426565703A2020202020FA
:1010200020202020202020202020202020202020C0
:1010300020202000504841204D4F44452053455426
:1010400055503A2020202020202020202020202021
:1010500020200020456E6572677920436F6D703ADD
:101060002020202020202020202020202020202080
:101070002000202A437572736F7220576964746868
:101080003A202020202020202020202063686E206D
:1010900000202A4368616E6E656C733A2020202020
:1010A0002020202020202020202020202020200060
:1010B000202A43616C6962726174696F6E20466FA9
:1010C000726D202861785E322B62782B63290020B4
:1010D0002A436F656620613A2020202020202020AE
:1010E0002020202020202020202020202000202A16
:1010F000436F656620623A20202020202020202097
:1011000020202020202020202020202000202A43D2
:101110006F656620633A2020202020202020202098
:101120002020202020202020202020005241544533
:10113000204D4F44452053455455503A20202020FF
:101140002020202020202020202000204C6F7720ED
:10115000506173732046696C7465723A20202020B8
:10116000202020202020202020002046696C74654B
:101170007220436F65663A20202020202020202006
:10118000202020202020532000494E505554205329
:1011900049474E414C2053455455503A2020202079
:1011A00020202020202020002050756C73653A20DC
:1011B000506F732C4E656720202020202020202097
:1011C0002020202020200020476175737369616E04
:1011D00020417070726F783A20202020202020203B
:1011E0002020202020002064762F64742054687210
:1011F00065733A202020202020202020202020203D
:101200002020202000204C6F77204C696D69743AB3
:101210002020202020202020202020202020206B83
:10122000657620002048696768204C696D69743ACA
:1012300020202020202020202020202020206B651E
:101240007620002052616E6765202B2F2D3A2020DA
:101250002020202020202020202020202020207638
:10126000200020526563616C2041444320202020EF
:10127000202020202020202020202020202020206E
:1012800000444953504C41592053455455503A203D
:10129000202020202020202020202020202020006E
:1012A00020526566726573682054696D653A202026
:1012B000202020202020202020202020532000201B
:1012C000506C6F743A20446F742C4C696E652C57C7
:1012D0006964652020202020202020202000204F2D
:1012E0007269656E746174696F6E3A20486F727AC4
:1012F0002C566572742020202020202000204C6174
:101300006E67756167653A20454E202020202020B9
:1013100020202020202020202020200041444D4952
:101320004E4953545241544956453A2020202020DA
:1013300020202020202020202020002052657365BE
:10134000742053657474696E677320746F204465EC
:101350006661756C742020202000204465627567EA
:10136000204C6576656C3A2020202020202020200B
:101370002020202020202020002A203D206E6F7475
:1013800020696D706C656D656E7465642079657437
:101390002020202020202000230022007E60270023
:1013A0007E607D007E7C7D007B7C7D00555342000D
:1013B0005261746520202020207878787878782011
:1013C00063706D202020203E202055534220004095
:1013D00020437572736F72207878787878782063FC
:1013E000706D202020202020202020202000504828
:1013F00041202020202020202020207878783A3199
:1014000020202020203E202055534220007878784C
:1014100078787878787878787878204078787878DC
:1014200078782E787878206B6556200078787878F0
:1014300078787878787878787820407878787878BC
:0C144000782E787878206368616E0000D8
:10144C00C83A002001000000E0000000BF0E0108B7
:10145C00C90E0108D10E0108D80E0108E00E0108D2
:10146C00E80E0108EF0E0108F80E0108150F01082F
:08147C00FFFFFFFFCA0300009F
:040000050801015994
:00000001FF
